:020000040800F2
:1000000000500020812A00082D0900082F0900084F
:100010003109000833090008350900080000000014
:100020000000000000000000000000003709000888
:1000300039090008000000003B0900083D090008DC
:10004000C92A0008C92A0008C92A0008C92A0008C4
:10005000C92A0008C92A0008C92A0008C92A0008B4
:10006000C92A0008C92A0008C92A0008C92A0008A4
:10007000C92A0008C92A0008C92A0008C92A000894
:10008000C92A0008C92A0008C92A0008C92A000884
:10009000C92A0008C92A0008C92A0008C92A000874
:1000A000C92A0008C92A0008C92A0008C92A000864
:1000B000C92A0008C92A0008C92A0008C92A000854
:1000C000C92A0008C92A0008C92A0008C92A000844
:1000D000C92A0008C92A0008C92A0008C92A000834
:1000E000C92A0008C92A0008C92A0008000000001F
:1000F0000000000000000000000000000000000000
:0C01000000000000000000005FF808F1A3
:10010C0010B5054C237833B9044B13B10448AFF345
:10011C0000800123237010BD3C040020000000006F
:10012C00982C000808B5034B1BB103490348AFF3E7
:10013C00008008BD0000000040040020982C00083E
:10014C00084A4FF080531361C3431B0403F47F032D
:10015C00184310614FF0004313614FF400431361D7
:10016C00704700BF00080140084A4FF480531361E8
:10017C00C3431B0403F47F03184310614FF0004387
:10018C0013614FF400431361704700BF0008014036
:10019C0010B40E4B4FF480521A616FEA1022120405
:1001AC0002F47F0242EA10221A614FF000441C61F3
:1001BC004FF400411961C2B2C043000400F47F0047
:1001CC00104318611C61196110BC70470008014094
:1001DC00F8B507460D4616461C462A20FFF7B0FF19
:1001EC003846FFF7D5FF3046FFF7D2FF2B20FFF73D
:1001FC00A7FF2846FFF7CCFF2046FFF7C9FF2C20AE
:10020C00FFF79EFFF8BD000070B50446EF231A46B9
:10021C0000210846FFF7DCFF4FF0000C1FE0134BEA
:10022C004FF480521A616FEA1422120402F47F0216
:10023C0042EA14221A614FF000461E614FF4004549
:10024C001D61E2B2E143090401F47F010A431A6122
:10025C001E611D610130EF28E1D90CF1010CBCF1DC
:10026C00EF0F01D80020F6E770BD00BF0008014079
:10027C0010B5734C00224FF40061204600F02CFDA9
:10028C00642000F0A5FB01224FF40061204600F031
:10029C0023FD782000F09CFB3620FFF751FF002057
:1002AC00FFF762FF3A20FFF74BFF0520FFF75CFFDB
:1002BC00C520FFF745FF1A20FFF756FFB220FFF7C6
:1002CC003FFF0520FFF750FF0520FFF74DFF0020F3
:1002DC00FFF74AFF3320FFF747FF3320FFF744FFB8
:1002EC00B720FFF72DFF0520FFF73EFFBB20FFF7E0
:1002FC0027FF3F20FFF738FFC020FFF721FF2C20FE
:10030C00FFF732FFC220FFF71BFF0120FFF72CFF86
:10031C00C320FFF715FF0F20FFF726FFC420FFF7C0
:10032C000FFF2020FFF720FFC620FFF709FF012059
:10033C00FFF71AFFD020FFF703FFA420FFF714FFED
:10034C00A120FFF711FFE820FFF7FAFE0320FFF7CB
:10035C000BFFE920FFF7F4FE0920FFF705FF09204A
:10036C00FFF702FF0820FFF7FFFEE020FFF7E8FE93
:10037C00D020FFF7F9FE0520FFF7F6FE0920FFF766
:10038C00F3FE0920FFF7F0FE0820FFF7EDFE142026
:10039C00FFF7EAFE2820FFF7E7FE3320FFF7E4FE25
:1003AC003F20FFF7E1FE0720FFF7DEFE1320FFF7EB
:1003BC00DBFE1420FFF7D8FE2820FFF7D5FE3020F7
:1003CC00FFF7D2FEE120FFF7BBFED020FFF7CCFEFB
:1003DC000520FFF7C9FE0920FFF7C6FE0920FFF72D
:1003EC00C3FE0820FFF7C0FE0320FFF7BDFE24204C
:1003FC00FFF7BAFE3220FFF7B7FE3220FFF7B4FE4C
:10040C003B20FFF7B1FE1420FFF7AEFE1320FFF7E1
:10041C00ABFE2820FFF7A8FE2F20FFF7A5FE21201A
:10042C00FFF78EFE1120FFF78BFE782000F0D0FA3C
:10043C000020FFF7E9FE2920FFF782FE10BD00BF68
:10044C000008014070B505460C4616462A20FFF7F9
:10045C0077FE2846FFF79CFE681C80B2FFF798FEDB
:10046C002B20FFF76DFE2046FFF792FE0134A0B261
:10047C00FFF78EFE2C20FFF763FE3046FFF788FE59
:10048C0070BD000070B51D46BDF8104032BB0B446A
:10049C009BB20246FFF79CFE1BE0244B4FF48052AC
:1004AC001A616FEA1422120402F47F0242EA142247
:1004BC001A614FF000461E614FF400451D61E2B217
:1004CC00E143090401F47F010A431A611E611D61B5
:1004DC000546681E80B2002DDFD170BDC2180B46D8
:1004EC0092B2FFF775FE1BE0104B4FF480521A616D
:1004FC006FEA1422120402F47F0242EA14221A61F7
:10050C004FF000461E614FF400451D61E2B2E1431D
:10051C00090401F47F010A431A611E611D6105463D
:10052C00681E80B2002DDFD1D7E700BF0008014064
:10053C002DE9F04188B000240494059406940794A6
:10054C00214B9A6942F010029A619A6902F01002EA
:10055C000192019A9A6942F020029A619A6902F01A
:10056C0020020292029A9A6942F004029A619B69F3
:10057C0003F004030393039BDFF8508022464FF4EF
:10058C000051404600F0A8FB114D224649F6FF01F0
:10059C00284600F0A1FB4FF4005304930127059764
:1005AC0006940326079604A9404600F083FA49F600
:1005BC00FF03049305970694079604A9284600F0B8
:1005CC0079FA08B0BDE8F08100100240001001403B
:1005DC0000080140704708B589B280B2FFF732FFBE
:1005EC0008BD10B582B0BDF8104099420ED09042B3
:1005FC0018D189B25B1A9BB2013300949BB20022D2
:10060C0080B2FFF73FFF002002B010BD80B2121A7B
:10061C0093B2013300949BB2012289B2FFF732FFEF
:10062C000020F1E74FF0FF30EEE700002DE9F04736
:10063C008146884615469A46BDF820409BB292B238
:10064C0089B280B2FFF7C4FD404621E014494FF453
:10065C0080530B616FEA14231B0403F47F0343EAFA
:10066C0014230B614FF000460E614FF400470F61ED
:10067C00E3B26FEA040C4FEA0C4C0CF47F0C43EA27
:10068C000C030B610E610F6101329542DEDA013011
:10069C00824501DB4A46F8E70020BDE8F08700BF41
:1006AC00000801402DE9F04190461F46069E80B29D
:1006BC0089B2B288024492B2F3880B449BB2013BDC
:1006CC00013A9BB292B2FFF783FD3468002502E039
:1006DC00FFF75EFD013507FB08F1A9420BDD34F88D
:1006EC00020B317A1029F3D00829F3D140BA80B229
:1006FC00FFF74EFDEEE70020BDE8F08172B6FEE795
:10070C0000B591B02822002106A802F0FDF90023C3
:10071C0001930293039304930593012206924FF4E1
:10072C00803307930A9202220D920E934FF4E0133A
:10073C000F9306A800F0ECFA80B90F230193022165
:10074C000291002303934FF480620492059301A855
:10075C0000F01CFD20B911B05DF804FBFFF7CEFFD3
:10076C00FFF7CCFF70B58AB000F00EF9FFF7C8FFA9
:10077C00FFF7DEFEFFF77CFD484CF0231A46484994
:10078C00204600F0B9FD4749012001F029FB01206A
:10079C0001F034FB4449002001F022FB002001F061
:1007AC002DFB4249032001F01BFB032001F026FB2B
:1007BC00204600F0E1FD3E4E304600F0E3FD4FF6E2
:1007CC00FF7000F029FE3B4C3B4B0A223B49204674
:1007DC0001F078FB0021204601F0E0FB3C23029362
:1007EC006E2301930A2500952B460022344920469E
:1007FC0001F07EFF02220021204602F00DF8324665
:10080C000021204601F0F6FF4FF6FF720021204632
:10081C0001F0CCFF2B4A0021204601F0D9FF2046E5
:10082C0001F00AFE83B20A3B642202921BB20193CE
:10083C00462300932B46002205A9204602F036F8E9
:10084C00214A0021204602F09BF8204A0021204634
:10085C0002F084F82A460021204602F0A3F89623E1
:10086C00029301933223009300221949204602F08F
:10087C00ABF8184A0021204602F0E8F8204601F0B7
:10088C007BFB01F0DDFE02E0012000F0A1F8124B31
:10089C001B78002BF8D100200AB070BD700400202A
:1008AC00E305000839060008EF050008B10600084A
:1008BC00187B000824060020E1050008E404002051
:1008CC0058040020B02C00082C7B0008B82C000821
:1008DC00DC040020E47A00080000002082B00E4BFB
:1008EC009A6942F001029A619A6902F0010200923F
:1008FC00009ADA6942F08052DA61DB6903F08053C6
:10090C000193019B054A536823F0E06343F00073A5
:10091C00536002B0704700BF00100240000001405D
:10092C00FEE7FEE7FEE7FEE7FEE77047704770471D
:10093C0008B500F03BF808BD7047000010B5044640
:10094C000E4B18784FF47A73B3FBF0F30C4A106823
:10095C00B0FBF3F000F09AF868B90F2C01D9012024
:10096C000AE0002221464FF0FF3000F057F8054B0B
:10097C001C60002000E0012010BD00BF080000201A
:10098C00040000200C00002008B5074A136843F04F
:10099C0010031360032000F02FF80F20FFF7CEFF99
:1009AC00FFF79CFF002008BD00200240034A11689D
:1009BC00034B1B780B441360704700BF5806002094
:1009CC0008000020014B1868704700BF5806002033
:1009DC0038B50446FFF7F6FF0546B4F1FF3F02D0E9
:1009EC00044B1B781C44FFF7EDFF401BA042FAD3CD
:1009FC0038BD00BF08000020074AD36823F4E06329
:100A0C001B041B0C000200F4E060034343F0BF63C3
:100A1C0043F40033D360704700ED00E000B5194B90
:100A2C00DB68C3F30223C3F1070CBCF1040F28BF2E
:100A3C004FF0040C03F1040EBEF1060F18D9033B62
:100A4C004FF0FF3E0EFA0CFC21EA0C0199400EFA15
:100A5C0003F322EA0303194300280BDB0901C9B293
:100A6C0000F1604000F5614080F800135DF804FB74
:100A7C000023E5E700F00F000901C9B2024B19543D
:100A8C00F4E700BF00ED00E014ED00E00138B0F138
:100A9C00807F0BD24FF0E0235861054AF02182F899
:100AAC0023100020986107221A61704701207047BB
:100ABC0000ED00E070B582B00024A446A6E0804DA5
:100ACC00AA4210D007D97F4DAA420CD005F580352B
:100ADC00AA4208D013E0A5F58015AA4203D005F56B
:100AEC007025AA4207D18A68002A58D0012A51D011
:100AFC004361082403E0A5F58015AA42F3D0BEF1AA
:100B0C00FF0F4ED80646BEF1FF0F4CD84FEA8C02B1
:100B1C0033680F25954023EA050304FA02F21343C8
:100B2C0033604B6813F0805F6ED0674B9A6942F06C
:100B3C0001029A619B6903F001030193019B4FEA47
:100B4C009C02951C614B53F825600CF003039D002F
:100B5C000F23AB4026EA03065D4B984229D003F5E0
:100B6C008063984200F08E8003F58063984200F019
:100B7C008B8003F58063984219D004231AE0CC686B
:100B8C00BDE7CC680434BAE7CC680834B7E7CC6866
:100B9C000C34B4E703610824B1E70024AFE7042464
:100BAC00ADE7061DAFE7ACF108029200B0E70323F6
:100BBC0000E00023AB4033430232444D45F8223071
:100BCC004B6813F4803F61D0424A136843EA0E032A
:100BDC0013604B6813F4003F5ED03E4A536843EAFF
:100BEC000E0353604B6813F4801F5BD0394A936833
:100BFC0043EA0E0393604B6813F4001F58D0354A38
:100C0C00D36843EA0E03D3600CF1010C0A6832FA84
:100C1C000CF353D0012303FA0CF302EA030E33EA6C
:100C2C000202F1D14A68122A3FF649AF122A3FF666
:100C3C0066AF01A555F822F0F30A00088B0B0008EB
:100C4C00950B0008A70B00080B0B00080B0B0008FA
:100C5C000B0B00080B0B00080B0B00080B0B000810
:100C6C000B0B00080B0B00080B0B00080B0B000800
:100C7C000B0B00080B0B00080B0B00088F0B00086C
:100C8C009B0B0008012395E7022393E7114A136895
:100C9C0023EA0E0313609CE70E4A536823EA0E0303
:100CAC0053609FE70B4A936823EA0E039360A2E715
:100CBC00084AD36823EA0E03D360A5E702B070BDDF
:100CCC000000221000003110001002400000014012
:100CDC0000080140000401400AB101617047090499
:100CEC000161704782B0084B1B68084AA2FB0323C2
:100CFC005B0A00FB03F3019300BF019B5A1E019298
:100D0C00002BF9D102B0704704000020D34D6210C3
:100D1C00002800F0F18170B582B00446036813F02E
:100D2C00010F2CD0994B5B6803F00C03042B1DD0E6
:100D3C00964B5B6803F00C03082B12D06368B3F579
:100D4C00803F41D0002B55D103F1804303F5043390
:100D5C001A6822F480321A601A6822F480221A600F
:100D6C0037E08A4B5B6813F4803FE7D0874B1B68F6
:100D7C0013F4003F03D06368002B00F0BF8123689D
:100D8C0013F0020F75D0814B5B6813F00C0F5FD022
:100D9C007E4B5B6803F00C03082B54D02369002BAB
:100DAC0000F08A807A4B01221A60FFF70BFE054691
:100DBC00764B1B6813F0020F75D1FFF703FE401B37
:100DCC000228F5D903209EE1704A136843F480335E
:100DDC001360636843B3FFF7F5FD05466B4B1B6867
:100DEC0013F4003FCBD1FFF7EDFD401B6428F5D980
:100DFC00032088E1B3F5A02F09D0644B1A6822F4C4
:100E0C0080321A601A6822F480221A60E1E703F13A
:100E1C008043A3F53C331A6842F480221A601A68A6
:100E2C0042F480321A60D4E7FFF7CCFD0546574BED
:100E3C001B6813F4003FA2D0FFF7C4FD401B6428CD
:100E4C00F5D903205FE1514B5B6813F4803FA5D1CA
:100E5C004E4B1B6813F0020F03D02369012B40F09B
:100E6C004F814A4A136823F0F803616943EAC103CE
:100E7C001360236813F0080F33D0A369002B5CD0E8
:100E8C00434B0122C3F88024FFF79CFD05463F4BE2
:100E9C005B6A13F0020F21D1FFF794FD401B02286F
:100EAC00F5D903202FE1394A136823F0F80361695F
:100EBC0043EAC1031360DCE7354B00221A60FFF7ED
:100ECC0081FD0546314B1B6813F0020FD1D0FFF7A3
:100EDC0079FD401B0228F5D9032014E10120FFF70E
:100EEC0001FF236813F0040F00F09680274BDB6999
:100EFC0013F0805F34D1254BDA6942F08052DA610D
:100F0C00DB6903F080530193019B0125214B1B6886
:100F1C0013F4807F26D0E368012B3DD0002B53D1F6
:100F2C0003F1804303F504331A6A22F001021A62BA
:100F3C001A6A22F004021A6233E0154B0022C3F83D
:100F4C008024FFF73FFD0546104B5B6A13F0020F40
:100F5C00C7D0FFF737FD401B0228F5D90320D2E09C
:100F6C000025D3E70B4A136843F480731360FFF733
:100F7C0029FD0646074B1B6813F4807FCBD1FFF786
:100F8C0021FD801B6428F5D90320BCE00010024031
:100F9C0000004242007000405F4A136A43F00103B4
:100FAC001362E36833B3FFF70DFD06465A4B1B6A19
:100FBC0013F0020F2FD1FFF705FD801B41F2883390
:100FCC009842F3D903209EE0052B09D0524B1A6AA4
:100FDC0022F001021A621A6A22F004021A62E0E795
:100FEC004D4B1A6A42F004021A621A6A42F001026C
:100FFC001A62D6E7FFF7E6FC0646474B1B6A13F06E
:10100C00020F08D0FFF7DEFC801B41F288339842B8
:10101C00F3D9032077E0E5B9E369002B72D03E4A9F
:10102C00526802F00C02082A56D0022B17D03B4B08
:10103C0000221A66FFF7C6FC0446374B1B6813F0F8
:10104C00007F47D0FFF7BEFC001B0228F5D9032018
:10105C0059E0314AD36923F08053D361DCE72F4B3D
:10106C0000221A66FFF7AEFC05462B4B1B6813F0EB
:10107C00007F06D0FFF7A6FC401B0228F5D9032001
:10108C0041E0236AB3F5803F1AD023494B6823F41F
:10109C007413226A606A024313434B601F4B012294
:1010AC001A66FFF78FFC04461B4B1B6813F0007F7E
:1010BC000ED1FFF787FC001B0228F5D9032022E094
:1010CC00154A536823F40033A1680B435360DCE7E3
:1010DC00002018E0002016E0012B16D00E4B5B68A8
:1010EC0003F48031226A914211D103F47013626AC5
:1010FC0093420ED1002006E001207047012002E04F
:10110C00012000E0002002B070BD0120FBE70120AF
:10111C00F9E70120F7E700BF00100240000042424F
:10112C0086B0164B0FCB0DF1180C0CE90F0040F2EA
:10113C000123ADF80430124B5B6803F00C02082A53
:10114C0002D0104806B07047C3F38342624412F8D1
:10115C00100C13F4803F0CD0094B5B68C3F3404375
:10116C00634413F8143C074A02FB00F0B0FBF3F0A5
:10117C00E8E7054B03FB00F0E4E700BF007B000849
:10118C000010024000127A0000093D00002800F017
:10119C00A08070B50D460446524B1B6803F0070344
:1011AC008B420BD24F4A136823F007030B43136097
:1011BC00136803F007038B4240F08D80236813F013
:1011CC00020F17D013F0040F04D0474A536843F4AE
:1011DC00E0635360236813F0080F04D0424A53684D
:1011EC0043F460535360404A536823F0F003A16802
:1011FC000B435360236813F0010F31D06368012B4C
:10120C0020D0022B25D0384A126812F0020F64D07D
:10121C0035494A6822F0030213434B60FFF7D2FBB7
:10122C000646314B5B6803F00C036268B3EB820F2C
:10123C0016D0FFF7C7FB801B41F288339842F0D9D8
:10124C00032045E0284A126812F4003FE0D1012047
:10125C003EE0254A126812F0007FD9D1012037E018
:10126C00204B1B6803F00703AB420AD91D4A1368D5
:10127C0023F007032B431360136803F00703AB42FF
:10128C002DD1236813F0040F06D0174A536823F4AA
:10129C00E063E1680B435360236813F0080F07D039
:1012AC00114A536823F46053216943EAC103536024
:1012BC00FFF736FF0C4B5B68C3F303130B4AD35C8D
:1012CC00D8400B4B18600B4B1868FFF737FB00200E
:1012DC0070BD012070470120FAE70120F8E70120DA
:1012EC00F6E700BF0020024000100240F07A000830
:1012FC00040000200C00002001608280C3800421C7
:10130C000184418492B2043A92B2013A12B28284BC
:10131C009BB2043B9BB2013B1BB2C3848283C3834D
:10132C00012380F8403080F841300023C36283866B
:10133C004386C3860387C36345F65D42A0F8462007
:10134C004FF6FF72A0F84220A0F8443003614361CD
:10135C00836108E003F1090200EBC2020021516035
:10136C0011720133DBB2032BF4D9024B186001204C
:10137C00704700BF5C060020014B186001207047CD
:10138C005C06002000B5074B1B6803F12C0C86464D
:10139C00BEE80F00ACE80F00DEF80030CCF80030EF
:1013AC005DF804FB5C0600202DE9F04383B0064693
:1013BC00884691461D46BDF82870824201DB814665
:1013CC001646454502DB2B4645469846114B1B6895
:1013DC0093F8582012F0020F17D05C6D009743461B
:1013EC00324629464846A04778B903B0BDE8F08399
:1013FC00084B1B681B683A4629462046984701341F
:10140C0024B2A642F4DA01352DB2A845EDDB4C46E8
:10141C00F7E700BF5C06002000B583B0074B1B68E4
:10142C009A88013ADB88013B00901BB212B2002172
:10143C000846FFF7B9FF03B05DF804FB5C0600201B
:10144C0008B5024B1B681B68984708BD5C0600205A
:10145C002DE9F04F87B004460D4617461E46BDF8E1
:10146C0040A0414B1B6893F8502012F0020F08D09B
:10147C00D3F84C80CDF800A033463A46C04700283C
:10148C006FD03A1B12B2731B1BB282EAE278A8EB44
:10149C00E2781FFA88F103910FFA88F883EAE3796E
:1014AC00A9EBE3791FFA89FB0FFA89F9002A1ADDF7
:1014BC0001220492002B1ADD012305934FEA6907E0
:1014CC004FEA6806284B1B681B6852462946204683
:1014DC009847C84528DA0026DDF80C80CDF80CB00A
:1014EC00DDF814B02FE04FF0FF320492E2E74FF03A
:1014FC00FF330593E2E74C4424B21B4B1B681B687B
:10150C00524629462046984701373FB2474528DACC
:10151C005E44B3B236B2B045EDDC039A9B1A1EB2F0
:10152C00059B1D442DB2E6E70027DDF81090EDE792
:10153C005D442DB20C4B1B681B6852462946204655
:10154C009847013636B24E450BDA4744BBB23FB230
:10155C00B945EDDC039A9B1A1FB2049B1C4424B2C0
:10156C00E6E707B0BDE8F08F5C0600202DE9F041FE
:10157C0082B007460E4615461C46BDF82080CDF8B5
:10158C0000800B46FFF764FFCDF8008023462A4607
:10159C0021463846FFF75CFFCDF8008023463A46DB
:1015AC0031463846FFF754FFCDF8008023462A46D3
:1015BC0031462846FFF74CFF02B0BDE8F081000031
:1015CC00024B1B68B3F90400704700BF5C06002097
:1015DC00024B1B68B3F90600704700BF5C06002085
:1015EC002DE9F04F87B00446049111469B46BDF897
:1015FC004080DDF84490FC2824D8D62819D3A0F1DB
:10160C00D603262B1ED8DFE803F0641D1D1D1D1DFF
:10161C00681D1D1D1D1D1D1D6A1D1D1D1D1D1D1D56
:10162C001D1D1D1D1D1D1D1D1D1D6E1D1D1D1D1D8D
:10163C006600B52855D0C42801D18E2402E0B0280C
:10164C0000D1F824A2B2B9F80A309A427BD3B9F887
:10165C000C00824277D88AB20092B9F9062090B277
:10166C00039000286FD0C508019510F0070F01D02A
:10167C0001350195D9F8100010B1E51A405D0390C1
:10168C00A248006890F8605015F0020F00F09F809F
:10169C00C56D039B04981A1892B2013AB9F8083038
:1016AC00009E33449BB2013B1BB212B2A8470746C3
:1016BC0099F80430002B44D1B9F80A30E31AB9F97F
:1016CC00082002FB03F3019A02FB03F300220292AF
:1016DC002EE09924B6E78124B4E79A24B2E7842457
:1016EC00B0E7E624AEE79424ACE74046B84776086A
:1016FC00013DADB20134A4B2072C06D82DB116F0C1
:10170C00010FF2D05846B847F1E70AF1010A1FFA67
:10171C008AFA009B019A924506D2D9F80020591CEE
:10172C000091D65C0024E7E7029A013292B2029251
:10173C00B9F908200299914205DA039D4FF0000A8D
:10174C00E8E7012B02D007B0BDE8F08FB9F80A30FA
:10175C00E31AB9F9082002FB03F3B9F9062002FBDE
:10176C0003F30026DDF80CA02BE0D9F800205D1C5B
:10177C0012F803C05FFA8BF25FFA88F1CCF5807334
:10178C0003FB01F10CFB0212C2F307220BF47F40A6
:10179C0008F47F4101FB03F300FB0C30001220F036
:1017AC00FF0000B2104380B2B8470134A4B22B46FC
:1017BC005445DAD3B9F90620A2EB0A0213440136D8
:1017CC00B6B2B9F908209642BDDA0024F0E799F8D0
:1017DC00041000294BD1E31AB9F9082002FB03F3DA
:1017EC00019A02FB03F30022059234E0474B1B687D
:1017FC001B684246BDF9001030B298477F0801368D
:10180C00B6B2013DADB20134A4B2072C0CD85DB117
:10181C0017F0010FEAD03D4B1B681B685A46BDF907
:10182C00001030B29847E9E70AF1010A1FFA8AFA68
:10183C00029B019A924506D2D9F80020591C0291BC
:10184C00D75C0024E1E7009A013292B20092059A2B
:10185C00013292B20592B9F9082005999142BFF66E
:10186C0072AFBDF81060039D4FF0000AE1E701294B
:10187C007FF469AFE31AB9F9081001FB03F302FB1B
:10188C0003F30027DDF80CA037E0D9F800205E1C2C
:10189C0012F803C05FFA8BF15FFA88F0CCF5807315
:1018AC0003FB00F00CFB0101C1F307210BF47F4299
:1018BC0008F47F4000FB03F302FB0C32121222F0FF
:1018CC00FF0212B20A43114B1B681B6892B2BDF99E
:1018DC00001028B298470135ADB20134A4B233469A
:1018EC005445D2D3B9F90620A2EB0A021344009A4C
:1018FC00013292B200920137BFB2B9F90820974277
:10190C00BFF621AFBDF810500024E9E75C060020BB
:10191C002DE9F04F89B00546B0F908300493B0F9C1
:10192C000A00B5F90C300593B5F90E1095F814B002
:10193C006B68B3F906200392B3F908200692B5F947
:10194C0016A0B5F9184007942F681B683BB337B342
:10195C000B1A934223DB3B46012400E001331A7837
:10196C0022B10A2AFAD10134A4B2F7E71BF0300FE6
:10197C0018D0A1EB00081FFA88F808F101081FFA2B
:10198C0088F8069B03FB14881FFA88F8631E079AD5
:10199C0003FB12830FFA83F8B8F1000F04DA09B0D5
:1019AC00BDE8F08F4FF000081BF0100F01D04FEA8C
:1019BC00680880440FFA88F83946002200E00131AB
:1019CC000B78BBB10A2B15D09CB268684689B4421F
:1019DC00F5D3B0F80CC06445F1D8006938B19B1B45
:1019EC00C35C53449BB21A4492B20131E8E7BDF890
:1019FC000C30F6E71FFA8AF9BDF81040059B1B1B4B
:101A0C009BB201339BB2A9EB02021A4412B2002A18
:101A1C00C5DB1BF0010F04D11BF0020F02D05210DA
:101A2C0000E00022144424B206E05B89F61A915DB2
:101A3C00494489B221440CB23E780A2E13D00137A6
:101A4C00002EACD06B6801936B8A00932B8A4246B4
:101A5C0021463046FFF7C4FD6B681A69002AE4D1B1
:101A6C00BDF80C10E4E70137069B079A13449BB2B0
:101A7C0098440FFA88F89FE784464168002301E0F8
:101A8C000133DBB29CF800209A4208D95A0101EBD1
:101A9C0043108A5C02F00302032AF1D100E000201B
:101AAC00704710B586464468002301E00133DBB271
:101ABC009EF800C09C4513D94FEA431C04EB43101D
:101ACC0014F80CC00CF0030CBCF1020FEED190F822
:101ADC0018C08C45EAD190F819C09445E6D100E0C5
:101AEC00002010BDF0B52E4B1B68B3F90AE0B3F91A
:101AFC000C401D7A90F800C0002316E011F0400F46
:101B0C0010D011F0200F46D011F0020F01D041F08F
:101B1C00800141F0080111F0400F01D041F00101AA
:101B2C0001F0B901717001339BB2634536D2416843
:101B3C005A0101EB43168A5C717802F04B020A2AB7
:101B4C00F0D1002DDAD0BEF1FF3FD7D011F0400F0D
:101B5C0003D101F0670141F0050101F0DF02B6F994
:101B6C000870774514DCB6F90C70774510DBB6F9C4
:101B7C000A70A7420CDCB6F90E70A74208DB42F0E3
:101B8C00200211F0400F03D101F0DB0242F02202DF
:101B9C0042F04001C6E741F01001BCE7F0BD00BFC8
:101BAC005C0600202DE9F84306460778002401E086
:101BBC000134A4B2BC4221D27268630102EB441816
:101BCC00D55C98F8019005F00303022BF0D115F0C9
:101BDC00200F04D0D8F8043041463046984715F011
:101BEC00080FE5D015F0800FE2D019F0410FDFD0CF
:101BFC00D8F80430414630469847D9E7BDE8F88319
:101C0C0070B582B00546144B00245C6002221A7039
:101C1C00067801E00134A4B2B4421AD26A686301B6
:101C2C0002EB44110191D35C03F00303022BF1D1BD
:101C3C008B7E002BEED0084801AA42600A7E4270CF
:101C4C004A7E8270C3702B6B9847019B00229A7658
:101C5C00E0E702B070BD00BF600600202DE9F04F38
:101C6C0087B005460F4616469A46109C93B20293CF
:101C7C0003F1FF380FFA88F8238800930B4642468D
:101C8C00FFF7E6FBB9B2039101F101090FFA89F9EB
:101C9C001FFA8AF1049101F1FF3B0FFA8BFB638869
:101CAC0000935B462A4649462846FFF7D1FBA3889A
:101CBC0000935346324651462846FFF7C9FBE3884A
:101CCC0000935B46324639463046FFF7C1FBA8B25B
:101CDC00059000F1010A0FFA8AFA029A951E2DB2AC
:101CEC00238900934B462A4649465046FFF7B0FBE2
:101CFC00039B9E1C36B204998F1E3FB263890093DE
:101D0C003B46524631465046FFF7A2FBA38900934F
:101D1C005B46424659465046FFF79AFBE3890093CF
:101D2C003B46424649464046FFF792FB059800F178
:101D3C0002080FFA88F8029A033A238A0093334672
:101D4C0012B231464046FFF783FB039BD91C049B20
:101D5C00A3F103090FFA89F9638A00934B464246B3
:101D6C0009B24046FFF774FBA38A00933B462A4610
:101D7C0039464046FFF76CFBE38A00934B462A46F4
:101D8C0031462846FFF764FB07B0BDE8F08F00B57D
:101D9C0083B002238DF803308DF800300B7E8DF864
:101DAC0001304B7E8DF802300191036B68469847E9
:101DBC0003B05DF804FB00B583B003238DF803304A
:101DCC0002238DF800300B7E8DF801304B7E8DF8A0
:101DDC0002300191036B6846984703B05DF804FB31
:101DEC00032807D8044B1B68093003EBC000416083
:101DFC0003230372704700BF5C06002003280FD832
:101E0C00084B1A6800F1090302EBC3031B7A13F0A9
:101E1C00010F05D0093002EBC00043F0020303723E
:101E2C00704700BF5C0600202DE9F04782B01468B3
:101E3C00002C42D0814688461746137A102B01D0CD
:101E4C00082B3AD11E4B1B6893F8682012F0020F36
:101E5C0007D05D6E0097FB88BA8841464846A84774
:101E6C0058B34FF0000A22E0461C36B24146FFF749
:101E7C00E7FA30460135ADB2BB88AB420FD934F826
:101E8C00022B3B7A102BEFD0082B16D1461C36B206
:101E9C0052BA92B24146FFF7D3FA3046EAE708F15C
:101EAC0001080FFA88F80AF1010A1FFA8AFAFB886E
:101EBC00534502D948460025DEE702B0BDE8F0875D
:101ECC005C06002000284BD070B51E460446002945
:101EDC0049D0002A4AD0002009E0450101EB401C02
:101EEC0003234B550025CCF81C500130C0B2904256
:101EFC00F3D32270616002232372002565814EF6B4
:101F0C007D73A381E5812582FFF75AFB80B20138EE
:101F1C006082FFF75DFB80B20138A0822663032349
:101F2C00A375A561134B1B68BBB12C33E361022372
:101F3C0084F8203084F82130112384F822304FF6B5
:101F4C00FF73A3841F22E284238548F21043638528
:101F5C000F2384F82C30002070BD0023E361E6E7EA
:101F6C004FF0FF3070474FF0FF30F5E74FF0FF3088
:101F7C00F2E700BF5C06002058B1037A43F0280357
:101F8C00037223F040030372034B1B68186100209B
:101F9C0070474FF0FF3070475C060020034600B3DB
:101FAC00027A12F0020F1FD011F0010F0FD0807DBA
:101FBC0040F00100987511F0020F0DD0997D41F0A1
:101FCC000201997542F020021A7200207047807D40
:101FDC0020F001009875EEE7997D21F002019975CA
:101FEC00F0E74FF0FF3070474FF0FF30704778B399
:101FFC000346027A12F0020F2DD010B5B0F90EE0A4
:10200C00A1F800E0B0F910C0A1F802C0B0F91200BC
:10201C008880B3F91420CA809C7D14F0010F0BD07A
:10202C000EF1030EA1F800E00CF1030CA1F802C0B4
:10203C0003388880033ACA809A7D12F0020F05D0CB
:10204C0093F82C304A88134401334B80002010BD88
:10205C004FF0FF3070474FF0FF307047F0B58DB048
:10206C0006460C46CD694B7813F0010F15D013F0D2
:10207C00800F40F0A18013F0020F00F0A4802B78A9
:10208C0043F001032B70237843F0200323700423C7
:10209C00A376637823F001036370237813F0200F89
:1020AC0000F0DC8013F0080F00F0D08013F0400F2C
:1020BC0003D12B7813F0020F66D00AA93046FFF734
:1020CC0096FF238ABDF8282013442381618ABDF82A
:1020DC002A3019446181A18A0A4412B2A281E18A90
:1020EC000B441BB2E381B6F914108B4200F3B6809B
:1020FC00B6F912309A4200F3B18021463046FFF710
:10210C0046FE6B7813F0010F6CD00327AB88ADF84B
:10211C001E306B88ADF81C302A7812F0010F08D0F5
:10212C006A7812F0020F5FD0ADF81E30AB88ADF8B4
:10213C001C306B7813F0100F60D023893B44ADF842
:10214C00143063893B44ADF81630A389DB1BADF822
:10215C001830E389DF1BADF81A702B7C8DF820301A
:10216C00EB6804930223ADF82230ADF824306B6990
:10217C00039303A8FFF7CCFB237823F040032370D1
:10218C0021463046FFF717FE6B7813F0080F61D12C
:10219C0013F0010F47D0B4F90800B4F90A10B4F9E0
:1021AC000C20B4F90E302D7815F0010F39D0334DC9
:1021BC000095FFF753FD4DE001228A760A7842F034
:1021CC0020020A7057E72B7813F0010F3FF461AF30
:1021DC0023F001032B70237843F020032370052395
:1021EC00A37656E7012791E712F0040FA1D02B89B3
:1021FC00ADF81E30EB88ADF81C309AE720893844D6
:10220C0061893944A289D21BE389DB1BBDF81EC04E
:10221C00CDF800C01BB212B209B200B2FFF7C4F87D
:10222C008BE7174DC4E7B4F90800B4F90A10B4F9F8
:10223C000C20B4F90E302E7816F0010F04D02D8935
:10224C000095FFF793F905E0ED88F9E76B7813F04B
:10225C00100F05D0237823F0200323700DB0F0BDB0
:10226C00B3890093B4F90E30B4F90C20B4F90A1008
:10227C00B4F90800FFF798F8ECE700BF40D7000866
:10228C0058D7000870B58CB0CE690B7813F0200FBE
:10229C000BD005460C4613F0080F65D013F0400F19
:1022AC0005D1237823F0200323700CB070BD0AA94C
:1022BC00FFF79DFE238ABDF8282013442381618AF1
:1022CC00BDF82A3019446181A18A0A4412B2A28154
:1022DC00E18A0B441BB2E381B5F914108B42E4DAAA
:1022EC00B5F912309A42E0DA21462846FFF74FFD45
:1022FC00B389ADF81E307289ADF81C200093B4F987
:10230C000E30B4F90C20B4F90A10B4F90800FFF738
:10231C004BF8B4F90830ADF81430B4F90A30ADF814
:10232C001630B4F90C30ADF81830B4F90E30ADF8F5
:10233C001A30B37B8DF820307368049396F90F3004
:10234C00ADF8223096F91030ADF824303368039391
:10235C0003A8FFF7DDFA237823F04003237021460E
:10236C002846FFF728FD9CE783890093B1F90E30CE
:10237C00B1F90C20B1F90A10B4F90800FFF714F800
:10238C008FE7F0B585B0CE690B7813F0200F0BD02A
:10239C0005460C4613F0080F41D013F0400F05D141
:1023AC00237823F02003237005B0F0BD02A9FFF7BA
:1023BC001EFEB4F810C0BDF808E00CEB0E0000B225
:1023CC002081628ABDF80A30D11809B26181376860
:1023DC00BF88BC441FFA8CFCF4440FFA8CFCA4F8A4
:1023EC000CC03768B7F806E0724492B213441BB2C3
:1023FC00E381B5F914209342D6DAB5F912309C4535
:10240C00D2DA32681AB1337913F0010F04D1237880
:10241C0023F040032370C3E7FFF706FDF7E783893A
:10242C000093B1F90E30B1F90C20B1F90A10B4F9DE
:10243C000800FEF7B9FFB3E7034688B1027A12F041
:10244C00020F0FD0408ADA89801A82B200B29B7DCB
:10245C0013F0010F01D0901F00B2002804DB70476D
:10246C0000207047002070470020F8E700286CD04F
:10247C002DE9F0418AB00446037A13F0020F67D0BD
:10248C00B0F90E60B0F91080B0F91270837D13F0C2
:10249C00010F07D0033636B208F103080FFA88F89B
:1024AC00033F3FB22C4B1B685B69A34246D0638D44
:1024BC00ADF81E30238DADF81C3094F82C301FFA7B
:1024CC0088F52B449BB2013BBDF81E2000921BB239
:1024DC003A4641463046FEF767FFA3690393E3692A
:1024EC000493F31CADF81430ADF81680ADF81870E9
:1024FC0094F82C302B449BB2013BADF81A3094F875
:10250C0022308DF8203094F92030ADF8223094F937
:10251C002130ADF8243003A8FFF7FAF994F82C1009
:10252C00294409B249F6135300930B463A463046F8
:10253C00FEF78EFF00200AB0BDE8F081E38CADF809
:10254C001E30A38CADF81C30B7E74FF0FF3070474E
:10255C004FF0FF30EFE700BF5C0600202DE9F041A3
:10256C0082B0B0F90E60B0F91050B0F91270B0F939
:10257C001480037A03F0DF03037213F0080F4DD0BD
:10258C000446827D12F0010F02D013F0400F1BD0D5
:10259C00A37D13F0020F0BD02046FFF767FF94F8D2
:1025AC002C301D4401352DB2237A13F0400F1ED16F
:1025BC00A389009343463A4629463046FEF7F4FE7B
:1025CC0094F800E0002318E01B4B009343463A4676
:1025DC0029463046FFF742FB033636B203352DB29F
:1025EC00033F3FB2A8F103080FFA88F8D0E723F0B5
:1025FC00400323721DE001339BB2734519D260680E
:10260C005901425C02F0030CBCF1020FF3D112F041
:10261C00080FF0D042F060024254ECE7074B1B6805
:10262C00B3F84630009343463A4631463046FEF7FF
:10263C00BBFE02B0BDE8F08170D700085C0600203C
:10264C0010B52A4B1B6893F8482012F0010F03D0E9
:10265C0022F0010283F848201A695869824223D07B
:10266C0012B398615A6198B1837D13F0020F0FD0A9
:10267C00037A13F0080F0BD0B0F90E10B2F90E302C
:10268C00994203D10169136999421AD0FFF7EEFE02
:10269C00164B1A6851690B7A23F040030B7252697E
:1026AC00137A43F028031372104B1B685C693CB11E
:1026BC00237A13F0200F0BD1237A13F0080F0BD1D0
:1026CC0010BDB0F91410B2F914309942DED1DFE725
:1026DC002046FFF743FFEFE72046FFF703FA2046BB
:1026EC00FFF760FA2046FFF78BFAE9E75C0600205B
:1026FC00F8B505460C4616461F46FFF7BDF90028EF
:10270C004AD0844600232370AB89A3806B896380F5
:10271C00AB8923816B89E3800123637012232374BB
:10272C001F4B1968A9B32C31E1601E4B63611E4B22
:10273C00CCF8043000208CF8010001238CF8183000
:10274C008CF81A00ACF81070BDF91830ACF81230D7
:10275C00BDF91C30ACF81430BDF92030ACF8163093
:10276C004FF6FF73ACF80830ACF80A30ACF80C300C
:10277C00ACF80E308CF819609CF8003043F0CA03AA
:10278C008CF80030CCF81C4023F001038CF800309E
:10279C00F8BD0023E360C8E74FF0FF30F8E700BF57
:1027AC005C060020147B00086920000810B5144654
:1027BC000A460121FFF775F938B1C2699480027895
:1027CC0042F060020270002010BD4FF0FF30FBE7BA
:1027DC0010B514460A460121FFF763F938B1C269F6
:1027EC005461027842F060020270002010BD4FF07C
:1027FC00FF30FBE710B514460A460121FFF751F9EB
:10280C0038B1C269D460027842F0600202700020D4
:10281C0010BD4FF0FF30FBE710B514460A460121FE
:10282C00FFF73FF900283DD08446C3695A7802F07F
:10283C00E1025A70197841F00201197014F0080F76
:10284C0002D042F008025A7014F0100F03D05A78DC
:10285C0042F010025A7014F0020F12D05A7842F063
:10286C0002025A7014F0010F17D05A7842F001028C
:10287C005A709CF8003043F060038CF80030002054
:10288C0010BD14F0040F04D05A7842F004025A70B0
:10289C00E8E721F002011970E4E75A7822F001020E
:1028AC005A70E6E74FF0FF30EAE70000F8B505464E
:1028BC000C4616461F46FFF7DFF8002846D0844624
:1028CC0000232360234B196800293CD02C31616014
:1028DC00002020726B896381AB89A3811223A373BF
:1028EC00E07320741C4BCCF804308CF801000223EC
:1028FC008CF818308CF81A00ACF81070BDF9183040
:10290C00ACF81230BDF91C30ACF81430BDF92030E5
:10291C00ACF816304FF6FF73ACF80830ACF80A3050
:10292C00ACF80C30ACF80E308CF819609CF8003018
:10293C0043F04A038CF80030CCF81C4023F0010320
:10294C008CF80030F8BD00236360C1E74FF0FF3016
:10295C00F8E700BF5C0600209122000810B5144671
:10296C000A460221FFF79DF838B1C269146002785B
:10297C0042F060020270002010BD4FF0FF30FBE708
:10298C0010B514460A460221FFF78BF838B1C2691C
:10299C005460027842F060020270002010BD4FF0CB
:1029AC00FF30FBE710B514460A460221FFF779F811
:1029BC0038B1C2699473027842F060020270002050
:1029CC0010BD4FF0FF30FBE770B50C4616461D46A8
:1029DC00FFF752F8A8B3844600202060012323712E
:1029EC00194BCCF804308CF8010003238CF8183008
:1029FC008CF81A00ACF81050BDF91030ACF812304D
:102A0C00BDF91430ACF81430BDF91830ACF81630F0
:102A1C004FF6FF73ACF80830ACF80A30ACF80C3059
:102A2C00ACF80E308CF819609CF8003043F04A0377
:102A3C008CF80030CCF81C4023F001038CF80030EB
:102A4C0070BD4FF0FF30FBE78F23000810B5144624
:102A5C000A460321FFF725F848B1C2691460012129
:102A6C001171027842F060020270002010BD4FF02C
:102A7C00FF30FBE70C480D490D4A002302E0D45807
:102A8C00C4500433C4188C42F9D30A4A0A4C0023AC
:102A9C0001E013600432A242FBD3FDF74DFF00F0BE
:102AAC000FF8FDF75FFE7047000000203C0400208B
:102ABC0098D700083C0400206C060020FEE70000BC
:102ACC0070B50D4E0D4D761BB61006D0002455F882
:102ADC00043B01349847A642F9D1094E094D00F048
:102AEC00D5F8761BB61006D0002455F8043B0134FB
:102AFC009847A642F9D170BD8CD700088CD7000836
:102B0C0094D700088CD70008830730B548D0541EE2
:102B1C00002A3FD00346CAB201E0013C3AD303F885
:102B2C00012B9D07F9D1032C2DD9CDB245EA0525F2
:102B3C000F2C45EA054536D9A4F1100222F00F0CF2
:102B4C0003F1200EE6444FEA121C03F1100242E995
:102B5C00045542E9025510327245F8D10CF10102CC
:102B6C0014F00C0F03EB021204F00F0C13D0ACF1A9
:102B7C00040323F003030433134442F8045B93422D
:102B8C00FBD10CF003042CB1CAB21C4403F8012B8A
:102B9C009C42FBD130BD64461346002CF4D1F9E7BE
:102BAC0003461446BFE71A46A446E0E7024B13B1AE
:102BBC00024800F005B8704700000000D92B00084F
:102BCC00002301461A46184600F01AB838B5084BCF
:102BDC00084D5B1B9C1007D0043B1D44013C55F871
:102BEC0004399847002CF9D1BDE8384000F054B8AE
:102BFC0098D7000894D70008704700BF704700BFF3
:102C0C002DE9F047DFF87CA00646DAF8000098467C
:102C1C000F469146FFF7F0FF1B4B1B68D3F848415A
:102C2C0024B365681F2D26DC5EB96B1C0235DAF8FF
:102C3C000000636044F82570FFF7E0FF0020BDE85A
:102C4C00F087012304EB8501C1F88890D4F8882122
:102C5C00AB401A43022EC4F88821C1F80881E4D194
:102C6C00D4F88C211343C4F88C31DEE703F5A67439
:102C7C00C3F84841D5E7DAF80000FFF7BFFF4FF083
:102C8C00FF30DCE73804002088D70008F8B500BF17
:102C9C00F8BC08BC9E467047F8B500BFF8BC08BC31
:042CAC009E46704789
:102CB000427574746F6E0000B54755492076302E0A
:102CC00033000000FFFFFFFFFFFFFFFFFFFFFFFFDD
:102CD000FFFFFFFFFFFFFFFFFFFFFFFFFFFFFFFF04
:102CE000FFFFFFFFFFFFFFFFFFFFFFFFFFFFFFFFF4
:102CF000FFFFFFFFFFFFFFFFFFFFFFFFFFFFFFFFE4
:102D0000FFFFFFFFFFFFFFFFFFFFFFFFFFFFFFFFD3
:1034E000FFFFFFFFFFFFFFDEFFFFFFFFFFFFFFFF0D
:1034F000FFFFFFFFFFFFFFFFFFFFFFFFFFFFFFFFDC
:10350000FFFFFFFFFFFFFFFFFFFFFFFFFFFFFFFFCB
:10351000FFFFFFFFFFFFFFFFFFFFFFFFFFFFFFFFBB
:10352000FFFFFFFFFFFFFFFFFFFFFFFFFFFFFFFFAB
:10353000FFFFFFFFFFFFFFFFFFFFFFFFFFFFFFFF9B
:10354000FFFFFFFFFFFFFFFFFFFFFFFFFFFFFFFF8B
:10355000FFFFFFFFFFFFFFFFFFFFFFFFFFFFFFFF7B
:10356000FFFFFFFFFFFFFFFFFFFFFFFFFFFFFFFF6B
:10357000FFFFFFFFFFFFFFFFFFFFFFFFFFFFFFFF5B
:10358000FFFFFFFFFFFFFFFFFFFFFFFFFFFFFFFF4B
:10359000FFFFFFFFFFFFFFFFFFFFFFFFFFFFFFFF3B
:1035A000FFFFFFFFFFFFFFFEE799F7DCFFFFFFFFD5
:1035B000FFFFFFFFFFFFFFFFFFFFFFFFFFFFFFFF1B
:1035C000FFFFFFFFFFFFFFFFFFFFFFFFFFFFFFFF0B
:1035D000FFFFFFFFFFFFFFFFFFFFFFFFFFFFFFFFFB
:1035E000FFFFFFFFFFFFFFFFFFFFFFFFFFFFFFFFEB
:1035F000FFFFFFFFFFFFFFFFFFFFFFFFFFFFFFFFDB
:10360000FFFFFFFFFFFFFFFFFFFFFFFFFFFFFFFFCA
:10361000FFFFFFFFFFFFFFFFFFFFFFFFFFFFFFFFBA
:10362000FFFFFFFFFFFFFFFFFFFFFFFFFFFFFFFFAA
:10363000FFFFFFFFFFFFFFFFFFFFFFFFFFFFFFFF9A
:10364000FFFFFFFFFFFFFFFFFFFFFFFFFFFFFFFF8A
:10365000FFFFFFFFFFFFFFFFFFFFFFFFFFFFFFFF7A
:10366000FFFFFFFFFFFFFFFFFFFFFFFFFFFE84EBFA
:103670005C235403956DFFFDFFFFFFFFFFFFFFFF7E
:10368000FFFFFFFFFFFFFFFFFFFFFFFFFFFFFFFF4A
:10369000FFFFFFFFFFFFFFFFFFFFFFFFFFFFFFFF3A
:1036A000FFFFFFFFFFFFFFFFFFFFFFFFFFFFFFFF2A
:1036B000FFFFFFFFFFFFFFFFFFFFFFFFFFFFFFFF1A
:1036C000FFFFFFFFFFFFFFFFFFFFFFFFFFFFFFFF0A
:1036D000FFFFFFFFFFFFFFFFFFFFFFFFFFFFFFFFFA
:1036E000FFFFFFFFFFFFFFFFFFFFFFFFFFFFFFFFEA
:1036F000FFFFFFFFFFFFFFFFFFFFFFFFFFFFFFFFDA
:10370000FFFFFFFFFFFFFFFFFFFFFFFFFFFFFFFFC9
:10371000FFFFFFFFFFFFFFFFFFFFFFFFFFFFFFFFB9
:10372000FFFFFFFFFFFFFFFFFFFFFFFFFFFEFFFFAA
:10373000FFFFFFFFEFBC5403B671A60F54235C25B7
:10374000F7FDFFFFFFFFFFFFFFFFFFFFFFFFFFFF93
:10375000FFFFFFFFFFFFFFFFFFFFFFFFFFFFFFFF79
:10376000FFFFFFFFFFFFFFFFFFFFFFFFFFFFFFFF69
:10377000FFFFFFFFFFFFFFFFFFFFFFFFFFFFFFFF59
:10378000FFFFFFFFFFFFFFFFFFFFFFFFFFFFFFFF49
:10379000FFFFFFFFFFFFFFFFFFFFFFFFFFFFFFFF39
:1037A000FFFFFFFFFFFFFFFFFFFFFFFFFFFFFFFF29
:1037B000FFFFFFFFFFFFFFFFFFFFFFFFFFFFFFFF19
:1037C000FFFFFFFFFFFFFFFFFFFFFFFFFFFFFFFF09
:1037D000FFFFFFFFFFFFFFFFFFFFFFFFFFFFFFFFF9
:1037E000FFFFFFFFFFFFFFFFFFFFFFFFFFFFFFFFE9
:1037F000FFFFA5CF54027CC9F7BCFFFFD7775C233E
:10380000C675C655BE525C245C25FFFDFFFFFFFF59
:10381000FFFFFFFFFFFFFFFFFFFFFFFFFFFFFFFFB8
:10382000FFFFFFFFFFFFFFFFFFFFFFFFFFFFFFFFA8
:10383000FFFFFFFFFFFFFFFFFFFFFFFFFFFFFFFF98
:10384000FFFFFFFFFFFFFFFFFFFFFFFFFFFFFFFF88
:10385000FFFFFFFFFFFFFFFFFFFFFFFFFFFFFFFF78
:10386000FFFFFFFFFFFFFFFFFFFFFFFFFFFFFFFF68
:10387000FFFFFFFFFFFFFFFFFFFFFFFFFFFFFFFF58
:10388000FFFFFFFFFFFFFFFFFFFFFFFFFFFFFFFF48
:10389000FFFFFFFFFFFFFFFFFFFFFFFFFFFFFFFF38
:1038A000FFFFFFFFFFFFFFFFFFFFFFFFFFFFFFFF28
:1038B000FFFFFFFFFFFFFFFFFFFD542395CC5C04DC
:1038C0005C04E79AB6735C45BE7474895C45AE705F
:1038D0005C446405FFFDFFFFFFFFFFFFFFFFFFFFED
:1038E000FFFFFFFFFFFFFFFFFFFFFFFFFFFFFFFFE8
:1038F000FFFFFFFFFFFFFFFFFFFFFFFFFFFFFFFFD8
:10390000FFFFFFFFFFFFFFFFFFFFFFFFFFFFFFFFC7
:10391000FFFFFFFFFFFFFFFFFFFFFFFFFFFFFFFFB7
:10392000FFFFFFFFFFFFFFFFFFFFFFFFFFFFFFFFA7
:10393000FFFFFFFFFFFFFFFFFFFFFFFFFFFFFFFF97
:10394000FFFFFFFFFFFFFFFFFFFFFFFFFFFFFFFF87
:10395000FFFFFFFFFFFFFFFFFFFFFFFFFFFFFFFF77
:10396000FFFFFFFFFFFFFFFFFFFFFFFFFFFFFFFF67
:10397000FFFFFFFFFFFFFFFFFFFFFFFFFFFFFFFF57
:10398000BE955443C694BE945C454BE3A66F6465F4
:10399000BE92544274235443B6B15C236C68FFFE5C
:1039A000FFFFFFFFFFFFFFFFFFFFFFFFFFFFFFFF27
:1039B000FFFFFFFFFFFFFFFFFFFFFFFFFFFFFFFF17
:1039C000FFFFFFFFFFFFFFFFFFFFFFFFFFFFFFFF07
:1039D000FFFFFFFFFFFFFFFFFFFFFFFFFFFFFFFFF7
:1039E000FFFFFFFFFFFFFFFFFFFFFFFFFFFFFFFFE7
:1039F000FFFFFFFFFFFFFFFFFFFFFFFFFFFFFFFFD7
:103A0000FFFFFFFFFFFFFFFFFFFFFFFFFFFFFFFFC6
:103A1000FFFFFFFFFFFFFFFFFFFFFFFFFFFFFFFFB6
:103A2000FFFFFFFFFFFFFFFFFFFFFFFFFFFFFFFFA6
:103A3000FFFFFFFFFFFFFFFFFFFFFFFFFFFFFFFF96
:103A4000FFFFFFFFFFFFFFFF8D4D5C45C675B632E0
:103A5000BE74644554426446BE928405ED4D6BC20B
:103A60006CC8B6725403854CFFFFFFFFFFFFFFFFDA
:103A7000FFFFFFFFFFFFFFFFFFFFFFFFFFFFFFFF56
:103A8000FFFFFFFFFFFFFFFFFFFFFFFFFFFFFFFF46
:103A9000FFFFFFFFFFFFFFFFFFFFFFFFFFFFFFFF36
:103AA000FFFFFFFFFFFFFFFFFFFFFFFFFFFFFFFF26
:103AB000FFFFFFFFFFFFFFFFFFFFFFFFFFFFFFFF16
:103AC000FFFFFFFFFFFFFFFFFFFFFFFFFFFFFFFF06
:103AD000FFFFFFFFFFFFFFFFFFFFFFFFFFFFFFFFF6
:103AE000FFFFFFFFFFFFFFFFFFFFFFFFFFFFFFFFE6
:103AF000FFFFFFFFFFFFFFFFFFFFFFFFFFFFFFFFD6
:103B0000FFFFFFFFFFFFFFFFFFFFFFFFFFFFFFFFC5
:103B100084EB6466BE526404A5D0BEB553E364442E
:103B2000BE54E50DF50CD54B5423B693AE305C4333
:103B3000A5CFFFFFFFFFFFFFFFFFFFFFFFFFFFFF1F
:103B4000FFFFFFFFFFFFFFFFFFFFFFFFFFFFFFFF85
:103B5000FFFFFFFFFFFFFFFFFFFFFFFFFFFFFFFF75
:103B6000FFFFFFFFFFFFFFFFFFFFFFFFFFFFFFFF65
:103B7000FFFFFFFFFFFFFFFFFFFFFFFFFFFFFFFF55
:103B8000FFFFFFFFFFFFFFFFFFFFFFFFFFFFFFFF45
:103B9000FFFFFFFFFFFFFFFFFFFFFFFFFFFFFFFF35
:103BA000FFFFFFFFFFFFFFFFFFFFFFFFFFFFFFFF25
:103BB000FFFFFFFFFFFFFFFFFFFFFFFFFFFFFFFF15
:103BC000FFFFFFFFFFFFFFFFFFFFFFFFFFFFFFFF05
:103BD000FFFFFFFFFFFFFFFF7CEB6466D5F26C0386
:103BE00074A8BE55BE735C447CA8ED0DF4CCED2CDE
:103BF0007C036C88C6558D4C5C23D737FFFFFFFFD5
:103C0000FFFFFFFFFFFFFFFFFFFFFFFFFFFFFFFFC4
:103C1000FFFFFFFFFFFFFFFFFFFFFFFFFFFFFFFFB4
:103C2000FFFFFFFFFFFFFFFFFFFFFFFFFFFFFFFFA4
:103C3000FFFFFFFFFFFFFFFFFFFFFFFFFFFFFFFF94
:103C4000FFFFFFFFFFFFFFFFFFFFFFFFFFFFFFFF84
:103C5000FFFFFFFFFFFFFFFFFFFFFFFFFFFFFFFF74
:103C6000FFFFFFFFFFFFFFFFFFFFFFFFFFFFFFFF64
:103C7000FFFFFFFFFFFFFFFFFFFFFFFFFFFFFFFF54
:103C8000FFFFFFFFFFFFFFFFFFFFFFFFFFFFFFFF44
:103C9000FFFFFFFFFFFFFFFFFFFFFFFFFFFFFFFF34
:103CA0007CEA6466D613A4E85C43BE75BE55A5F0F5
:103CB0005C42AC87F50CF4CCB4E95C23C675BE75E8
:103CC00074C85C24F7DCFFFFFFFFFFFFFFFFFFFF6F
:103CD000FFFFFFFFFFFFFFFFFFFFFFFFFFFFFFFFF4
:103CE000FFFFFFFFFFFFFFFFFFFFFFFFFFFFFFFFE4
:103CF000FFFFFFFFFFFFFFFFFFFFFFFFFFFFFFFFD4
:103D0000FFFFFFFFFFFFFFFFFFFFFFFFFFFFFFFFC3
:103D1000FFFFFFFFFFFFFFFFFFFFFFFFFFFFFFFFB3
:103D2000FFFFFFFFFFFFFFFFFFFFFFFFFFFFFFFFA3
:103D3000FFFFFFFFFFFFFFFFFFFFFFFFFFFFFFFF93
:103D4000FFFFFFFFFFFFFFFFFFFFFFFFFFFFFFFF83
:103D5000FFFFFFFFFFFFFFFFFFFFFFFFFFFFFFFF73
:103D6000FFFFFFFFFFFFFFFF84EB6445D633DD8DD0
:103D70006402B5F1BE55BE35850B5C22D52BF4CC63
:103D8000E54C6C2284EBBE55BE7464465C06FFFEB7
:103D9000FFFFFFFFFFFFFFFFFFFFFFFFFFFFFFFF33
:103DA000FFFFFFFFFFFFFFFFFFFFFFFFFFFFFFFF23
:103DB000FFFFFFFFFFFFFFFFFFFFFFFFFFFFFFFF13
:103DC000FFFFFFFFFFFFFFFFFFFFFFFFFFFFFFFF03
:103DD000FFFFFFFFFFFFFFFFFFFFFFFFFFFFFFFFF3
:103DE000FFFFFFFFFFFFFFFFFFFFFFFFFFFFFFFFE3
:103DF000FFFFFFFFFFFFFFFFFFFFFFFFFFFFFFFFD3
:103E0000FFFFFFFFFFFFFFFFFFFFFFFFFFFFFFFFC2
:103E1000FFFFFFFFFFFFFFFFFFFFFFFFFFFFFFFFB2
:103E2000FFFFFFFFFFFFFFFFFFFFFFFFFFFFFFFFA2
:103E30008D4D5C24CE54ED0D6C038529BE55BE36E8
:103E4000BE556C876C03ED2CF4EC94665C44BE7537
:103E5000BE55B6525423A610FFFFFFFFFFFFFFFF22
:103E6000FFFFFFFFFFFFFFFFFFFFFFFFFFFFFFFF62
:103E7000FFFFFFFFFFFFFFFFFFFFFFFFFFFFFFFF52
:103E8000FFFFFFFFFFFFFFFFFFFFFFFFFFFFFFFF42
:103E9000FFFFFFFFFFFFFFFFFFFFFFFFFFFFFFFF32
:103EA000FFFFFFFFFFFFFFFFFFFFFFFFFFFFFFFF22
:103EB000FFFFFFFFFFFFFFFFFFFFFFFFFFFFFFFF12
:103EC000FFFFFFFFFFFFFFFFFFFFFFFFFFFFFFFF02
:103ED000FFFFFFFFFFFFFFFFFFFFFFFFFFFFFFFFF2
:103EE000FFFFFFFFFFFFFFFFFFFFFFFFFFFFFFFFE2
:103EF000FFFFFFFFFFFFFFFFADF15C44C674E4EE80
:103F0000ACC85C03BE75BE55C655BE745C24842423
:103F1000F50CDD4D5C03AE11BE55BE5595AD542379
:103F2000E759FFFFFFFFFFFFFFFFFFFFFFFFFFFF5F
:103F3000FFFFFFFFFFFFFFFFFFFFFFFFFFFFFFFF91
:103F4000FFFFFFFFFFFFFFFFFFFFFFFFFFFFFFFF81
:103F5000FFFFFFFFFFFFFFFFFFFFFFFFFFFFFFFF71
:103F6000FFFFFFFFFFFFFFFFFFFFFFFFFFFFFFFF61
:103F7000FFFFFFFFFFFFFFFFFFFFFFFFFFFFFFFF51
:103F8000FFFFFFFFFFFFFFFFFFFFFFFFFFFFFFFF41
:103F9000FFFFFFFFFFFFFFFFFFFFFFFFFFFFFFFF31
:103FA000FFFFFFFFFFFFFFFFFFFFFFFFFFFFFFFF21
:103FB000FFFFFFFFFFFFFFFFFFFFFFFFFFFFFFFF11
:103FC000CED65423BE94E52ED50B5423BEB4C6568C
:103FD000BE55C655AE115C23ACC8ED0C6C2474877D
:103FE000BE55BE55BE546CA85C25FFFEFFFFFFFF0B
:103FF000FFFFFFFFFFFFFFFFFFFFFFFFFFFFFFFFD1
:10400000FFFFFFFFFFFFFFFFFFFFFFFFFFFFFFFFC0
:10401000FFFFFFFFFFFFFFFFFFFFFFFFFFFFFFFFB0
:10402000FFFFFFFFFFFFFFFFFFFFFFFFFFFFFFFFA0
:10403000FFFFFFFFFFFFFFFFFFFFFFFFFFFFFFFF90
:10404000FFFFFFFFFFFFFFFFFFFFFFFFFFFFFFFF80
:10405000FFFFFFFFFFFFFFFFFFFFFFFFFFFFFFFF70
:10406000FFFFFFFFFFFFFFFFFFFFFFFFFFFFFFFF60
:10407000FFFFFFFFFFFFFFFFFFFFFFFFFFFFFFFF50
:10408000FFFFFFFFFFFFFFFFEFDB5C43B672E54F73
:10409000ED2C64228D6CBE56BE56C635BE55956D50
:1040A0006403C56B6C435442BEB3C656C655B67363
:1040B00054439DAEFFFFFFFFFFFFFFFFFFFFFFFF2A
:1040C000FFFFFFFFFFFFFFFFFFFFFFFFFFFFFFFF00
:1040D000FFFFFFFFFFFFFFFFFFFFFFFFFFFFFFFFF0
:1040E000FFFFFFFFFFFFFFFFFFFFFFFFFFFFFFFFE0
:1040F000FFFFFFFFFFFFFFFFFFFFFFFFFFFFFFFFD0
:10410000FFFFFFFFFFFFFFFFFFFFFFFFFFFFFFFFBF
:10411000FFFFFFFFFFFFFFFFFFFFFFFFFFFFFFFFAF
:10412000FFFFFFFFFFFFFFFFFFFFFFFFFFFFFFFF9F
:10413000FFFFFFFFFFFFFFFFFFFFFFFFFFFFFFFF8F
:10414000FFFFFFFFFFFFFFFFFFFFFFFFFFFFFFFF7F
:10415000FFFE5423AE10DD91ED0C84246445BE7542
:10416000BE55BE56BE55BE7564665C22544254822E
:104170006425C655BE559DAF5C435C23EFDBFFFF56
:10418000FFFFFFFFFFFFFFFFFFFFFFFFFFFFFFFF3F
:10419000FFFFFFFFFFFFFFFFFFFFFFFFFFFFFFFF2F
:1041A000FFFFFFFFFFFFFFFFFFFFFFFFFFFFFFFF1F
:1041B000FFFFFFFFFFFFFFFFFFFFFFFFFFFFFFFF0F
:1041C000FFFFFFFFFFFFFFFFFFFFFFFFFFFFFFFFFF
:1041D000FFFFFFFFFFFFFFFFFFFFFFFFFFFFFFFFEF
:1041E000FFFFFFFFFFFFFFFFFFFFFFFFFFFFFFFFDF
:1041F000FFFFFFFFFFFFFFFFFFFFFFFFFFFFFFFFCF
:10420000FFFFFFFFFFFFFFFFFFFFFFFFFFFFFFFFBE
:10421000FFFFFFFFFFFFFFFFFFFE53E3958DDE1360
:10422000ED0DBCA95443BE93BE55BE55C655BE56F2
:10423000AE5264465C038DAD7CAABE75BE75AE32CF
:104240007CE95C245404AE31FFFDFFFFFFFFFFFF5C
:10425000FFFFFFFFFFFFFFFFFFFFFFFFFFFFFFFF6E
:10426000FFFFFFFFFFFFFFFFFFFFFFFFFFFFFFFF5E
:10427000FFFFFFFFFFFFFFFFFFFFFFFFFFFFFFFF4E
:10428000FFFFFFFFFFFFFFFFFFFFFFFFFFFFFFFF3E
:10429000FFFFFFFFFFFFFFFFFFFFFFFFFFFFFFFF2E
:1042A000FFFFFFFFFFFFFFFFFFFFFFFFFFFFFFFF1E
:1042B000FFFFFFFFFFFFFFFFFFFFFFFFFFFFFFFF0E
:1042C000FFFFFFFFFFFFFFFFFFFFFFFFFFFFFFFFFE
:1042D000FFFFFFFFFFFFFFFFFFFFFFFFFFFFFFFFEE
:1042E000FFFE53C4850ACE14ED0DED2D5C229DAF6B
:1042F000BE55C655C635C634BE55C675BE54BE5429
:10430000BE55BE56BE55C655BE55C6B5B6925C0422
:104310006445EFDBFFFFFFFFFFFFFFFFFFFFFFFF36
:10432000FFFFFFFFFFFFFFFFFFFFFFFFFFFFFFFF9D
:10433000FFFFFFFFFFFFFFFFFFFFFFFFFFFFFFFF8D
:10434000FFFFFFFFFFFFFFFFFFFFFFFFFFFFFFFF7D
:10435000FFFFFFFFFFFFFFFFFFFFFFFFFFFFFFFF6D
:10436000FFFFFFFFFFFFFFFFFFFFFFFFFFFFFFFF5D
:10437000FFFFFFFFFFFFFFFFFFFFFFFFFFFFFFFF4D
:10438000FFFFFFFFFFFFFFFFFFFFFFFFFFFFFFFF3D
:10439000FFFFFFFFFFFFFFFFFFFFFFFFFFFFFFFF2D
:1043A000FFFFFFFFFFFFFFFFFFFF8D2D6C86BE7538
:1043B000DD2D64025C626C67BE75C655BE56BE5587
:1043C000BE55C656BE55BE55C655C635BE55BE555C
:1043D000BE55BE55C656F7DB6C675403CF16FFFFBC
:1043E000FFFFFFFFFFFFFFFFFFFFFFFFFFFFFFFFDD
:1043F000FFFFFFFFFFFFFFFFFFFFFFFFFFFFFFFFCD
:10440000FFFFFFFFFFFFFFFFFFFFFFFFFFFFFFFFBC
:10441000FFFFFFFFFFFFFFFFFFFFFFFFFFFFFFFFAC
:10442000FFFFFFFFFFFFFFFFFFFFFFFFFFFFFFFF9C
:10443000FFFFFFFFFFFFFFFFFFFFFFFFFFFFFFFF8C
:10444000FFFFFFFFFFFFFFFFFFFFFFFFFFFFFFFF7C
:10445000FFFFFFFFFFFFFFFFFFFFFFFFFFFFFFFF6C
:10446000FFFFFFFFFFFFFFFFFFFFFFFFFFFFFFFF5C
:10447000FFFFD7375C24B674D56F5C425443544376
:10448000B632C655BE55BE56BE55BE55BE55BE56B5
:10449000BE56BE55BE55C655C656C656C655BE5561
:1044A000EF5B850B5443C693FFFFFFFFFFFFFFFF4A
:1044B000FFFFFFFFFFFFFFFFFFFFFFFFFFFFFFFF0C
:1044C000FFFFFFFFFFFFFFFFFFFFFFFFFFFFFFFFFC
:1044D000FFFFFFFFFFFFFFFFFFFFFFFFFFFFFFFFEC
:1044E000FFFFFFFFFFFFFFFFFFFFFFFFFFFFFFFFDC
:1044F000FFFFFFFFFFFFFFFFFFFFFFFFFFFFFFFFCC
:10450000FFFFFFFFFFFFFFFFFFFFFFFFFFFFFFFFBB
:10451000FFFFFFFFFFFFFFFFFFFFFFFFFFFFFFFFAB
:10452000FFFFFFFFFFFFFFFFFFFFFFFFFFFFFFFF9B
:10453000FFFFFFFFFFFFFFFFFFFFEFBB5404B6735A
:10454000C5F05C435C459DCFBE74BE56C656C6548E
:10455000C655C655BE56BE55BE56BE56BE56C655A7
:10456000C655C655BE55BE55BE55E75BA5EF5404AE
:10457000EF9AFFFFFFFFFFFFFFFFFFFFFFFFFFFFC0
:10458000FFFFFFFFFFFFFFFFFFFFFFFFFFFFFFFF3B
:10459000FFFFFFFFFFFFFFFFFFFFFFFFFFFFFFFF2B
:1045A000FFFFFFFFFFFFFFFFFFFFFFFFFFFFFFFF1B
:1045B000FFFFFFFFFFFFFFFFFFFFFFFFFFFFFFFF0B
:1045C000FFFFFFFFFFFFFFFFFFFFFFFFFFFFFFFFFB
:1045D000FFFFFFFFFFFFFFFFFFFFFFFFFFFFFFFFEB
:1045E000FFFFFFFFFFFFFFFFFFFFFFFFFFFFFFFFDB
:1045F000FFFFFFFFFFFFFFFFFFFFFFFFFFFFFFFFCB
:10460000FFFFF7FD5404A5EFA5F154436C87C65591
:10461000C656C655BE55BE55BE55BE56BE55BE55F0
:10462000BE55BE55BE55BE55BE55BE55BE55BE55F2
:10463000BE55BE55DF19852B53E4FFFEFFFFFFFF7C
:10464000FFFFFFFFFFFFFFFFFFFFFFFFFFFFFFFF7A
:10465000FFFFFFFFFFFFFFFFFFFFFFFFFFFFFFFF6A
:10466000FFFFFFFFFFFFFFFFFFFFFFFFFFFFFFFF5A
:10467000FFFFFFFFFFFFFFFFFFFFFFFFFFFFFFFF4A
:10468000FFFFFFFFFFFFFFFFFFFFFFFFFFFFFFFF3A
:10469000FFFFFFFFFFFFFFFFFFFFFFFFFFFFFFFF2A
:1046A000FFFFFFFFFFFFFFFFFFFFFFFFFFFFFFFF1A
:1046B000FFFFFFFFFFFFFFFFFFFFFFFFFFFFFFFF0A
:1046C000FFFFFFFFFFFFFFFFFFFFFFFF7D0A6C877C
:1046D000BE5584EA6C28BE55BE56C655C655C6564C
:1046E000BE56BE56BE55BE55BE56BE55BE55BE552F
:1046F000C655BE35BE35BE55BE56BE55BE56CF3666
:104700005C23ADF1FFFFFFFFFFFFFFFFFFFFFFFF98
:10471000FFFFFFFFFFFFFFFFFFFFFFFFFFFFFFFFA9
:10472000FFFFFFFFFFFFFFFFFFFFFFFFFFFFFFFF99
:10473000FFFFFFFFFFFFFFFFFFFFFFFFFFFFFFFF89
:10474000FFFFFFFFFFFFFFFFFFFFFFFFFFFFFFFF79
:10475000FFFFFFFFFFFFFFFFFFFFFFFFFFFFFFFF69
:10476000FFFFFFFFFFFFFFFFFFFFFFFFFFFFFFFF59
:10477000FFFFFFFFFFFFFFFFFFFFFFFFFFFFFFFF49
:10478000FFFFFFFFFFFFFFFFFFFFFFFFFFFFFFFF39
:10479000FFFFFFFF9DCF5403BE74BE55BE74BE55D0
:1047A000BE56C655BE55BE55BE55BE55BE56BE5567
:1047B000C656BE55BE55BE55BE55C656C655BE5547
:1047C000C655BE35C635C6567D0A5C44F7DCFFFFCC
:1047D000FFFFFFFFFFFFFFFFFFFFFFFFFFFFFFFFE9
:1047E000FFFFFFFFFFFFFFFFFFFFFFFFFFFFFFFFD9
:1047F000FFFFFFFFFFFFFFFFFFFFFFFFFFFFFFFFC9
:10480000FFFFFFFFFFFFFFFFFFFFFFFFFFFFFFFFB8
:10481000FFFFFFFFFFFFFFFFFFFFFFFFFFFFFFFFA8
:10482000FFFFFFFFFFFFFFFFFFFFFFFFFFFFFFFF98
:10483000FFFFFFFFFFFFFFFFFFFFFFFFFFFFFFFF88
:10484000FFFFFFFFFFFFFFFFFFFFFFFFFFFFFFFF78
:10485000FFFFFFFFFFFFFFFFFFFFFFFFF7DB5C2313
:10486000A5F0BE56BE56BE55BE55BE55BE56BE562A
:10487000BE55BE56BE56C655C656BE55BE55BE558D
:10488000BE55BE55BE55ADF1BE94C655BE56BE55BD
:10489000BE9453E46445FFFCFFFFFFFFFFFFFFFFF3
:1048A000FFFFFFFFFFFFFFFFFFFFFFFFFFFFFFFF18
:1048B000FFFFFFFFFFFFFFFFFFFFFFFFFFFFFFFF08
:1048C000FFFFFFFFFFFFFFFFFFFFFFFFFFFFFFFFF8
:1048D000FFFFFFFFFFFFFFFFFFFFFFFFFFFFFFFFE8
:1048E000FFFFFFFFFFFFFFFFFFFFFFFFFFFFFFFFD8
:1048F000FFFFFFFFFFFFFFFFFFFFFFFFFFFFFFFFC8
:10490000FFFFFFFFFFFFFFFFFFFFFFFFFFFFFFFFB7
:10491000FFFFFFFFFFFFFFFFFFFFFFFFFFFFFFFFA7
:10492000FFFFFFFFFFFE5C257CEAC655BE55BE5566
:10493000C655BE56BE56BE55BE55BE55BE55BE55D5
:10494000BE56BE55BE55BE55BE55BE75BE745C0442
:104950006446C655C655C656C655C6945C8653E4CD
:10496000FFFDFFFFFFFFFFFFFFFFFFFFFFFFFFFF59
:10497000FFFFFFFFFFFFFFFFFFFFFFFFFFFFFFFF47
:10498000FFFFFFFFFFFFFFFFFFFFFFFFFFFFFFFF37
:10499000FFFFFFFFFFFFFFFFFFFFFFFFFFFFFFFF27
:1049A000FFFFFFFFFFFFFFFFFFFFFFFFFFFFFFFF17
:1049B000FFFFFFFFFFFFFFFFFFFFFFFFFFFFFFFF07
:1049C000FFFFFFFFFFFFFFFFFFFFFFFFFFFFFFFFF7
:1049D000FFFFFFFFFFFFFFFFFFFFFFFFFFFFFFFFE7
:1049E000FFFFFFFFFFFFFFFFFFFFFFFFFFFF64670A
:1049F0006C88BE55C655BE55C655BE56C655C6561C
:104A0000BE36C655BE55BE55BE55BE55BE55BE5525
:104A1000BE56BE55C67564055443B632BE55C6551E
:104A2000CE14CE14E73853E3A5CFFFFFFFFFFFFFFF
:104A3000FFFFFFFFFFFFFFFFFFFFFFFFFFFFFFFF86
:104A4000FFFFFFFFFFFFFFFFFFFFFFFFFFFFFFFF76
:104A5000FFFFFFFFFFFFFFFFFFFFFFFFFFFFFFFF66
:104A6000FFFFFFFFFFFFFFFFFFFFFFFFFFFFFFFF56
:104A7000FFFFFFFFFFFFFFFFFFFFFFFFFFFFFFFF46
:104A8000FFFFFFFFFFFFFFFFFFFFFFFFFFFFFFFF36
:104A9000FFFFFFFFFFFFFFFFFFFFFFFFFFFFFFFF26
:104AA000FFFFFFFFFFFFFFFFFFFFFFFFFFFFFFFF16
:104AB000FFFFFFFFFFFF6C886C87BE55BE56BE55DB
:104AC000C655BE56BE55C695BE55BE56BE56BE55FB
:104AD000BE55BE55BE55BE55BE55BE55BE55BE7320
:104AE0006448CE14E590E52EE4EEED0DD5B19DCFF2
:104AF0006445FFFEFFFFFFFFFFFFFFFFFFFFFFFF1C
:104B0000FFFFFFFFFFFFFFFFFFFFFFFFFFFFFFFFB5
:104B1000FFFFFFFFFFFFFFFFFFFFFFFFFFFFFFFFA5
:104B2000FFFFFFFFFFFFFFFFFFFFFFFFFFFFFFFF95
:104B3000FFFFFFFFFFFFFFFFFFFFFFFFFFFFFFFF85
:104B4000FFFFFFFFFFFFFFFFFFFFFFFFFFFFFFFF75
:104B5000FFFFFFFFFFFFFFFFFFFFFFFFFFFFFFFF65
:104B6000FFFFFFFFFFFFFFFFFFFFFFFFFFFFFFFF55
:104B7000FFFFFFFFFFFFFFFFFFFFFFFFFFFF74A926
:104B80006C87BE55BE55BE55C635BE55854C5C02BC
:104B9000958DBE56BE55C655C656BE55BE55BE555C
:104BA000BE55BE35C656C655CE13ED0DF4EDF4EC2C
:104BB000F4CDDD6FC634DF985404FFFDFFFFFFFF27
:104BC000FFFFFFFFFFFFFFFFFFFFFFFFFFFFFFFFF5
:104BD000FFFFFFFFFFFFFFFFFFFFFFFFFFFFFFFFE5
:104BE000FFFFFFFFFFFFFFFFFFFFFFFFFFFFFFFFD5
:104BF000FFFFFFFFFFFFFFFFFFFFFFFFFFFFFFFFC5
:104C0000FFFFFFFFFFFFFFFFFFFFFFFFFFFFFFFFB4
:104C1000FFFFFFFFFFFFFFFFFFFFFFFFFFFFFFFFA4
:104C2000FFFFFFFFFFFFFFFFFFFFFFFFFFFFFFFF94
:104C3000FFFFFFFFFFFFFFFFFFFFFFFFFFFFFFFF84
:104C4000FFFFFFFFFFFF7CE96C86BE55BE55BE56D9
:104C5000C655BE765C665C626C67C655BE55BE5571
:104C6000C636BE55C676BE76BE55C656C656BE5567
:104C7000D5D3E52FE52FDD91CE13C655BE55C6D34E
:104C80005C24FFFEFFFFFFFFFFFFFFFFFFFFFFFFB3
:104C9000FFFFFFFFFFFFFFFFFFFFFFFFFFFFFFFF24
:104CA000FFFFFFFFFFFFFFFFFFFFFFFFFFFFFFFF14
:104CB000FFFFFFFFFFFFFFFFFFFFFFFFFFFFFFFF04
:104CC000FFFFFFFFFFFFFFFFFFFFFFFFFFFFFFFFF4
:104CD000FFFFFFFFFFFFFFFFFFFFFFFFFFFFFFFFE4
:104CE000FFFFFFFFFFFFFFFFFFFFFFFFFFFFFFFFD4
:104CF000FFFFFFFFFFFFFFFFFFFFFFFFFFFFFFFFC4
:104D0000FFFFFFFFFFFFFFFFFFFFFFFFFFFF95CD4F
:104D10006465BE76C655BE55C655C6556C865442AA
:104D20007D09BE75BE56C636BE55C655C655BE743F
:104D3000BE53C655BE75BE75BE55BE56BE55BE5594
:104D4000BE55BE55BE756446852BFFFFFFFFFFFFB6
:104D5000FFFFFFFFFFFFFFFFFFFFFFFFFFFFFFFF63
:104D6000FFFFFFFFFFFFFFFFFFFFFFFFFFFFFFFF53
:104D7000FFFFFFFFFFFFFFFFFFFFFFFFFFFFFFFF43
:104D8000FFFFFFFFFFFFFFFFFFFFFFFFFFFFFFFF33
:104D9000FFFFFFFFFFFFFFFFFFFFFFFFFFFFFFFF23
:104DA000FFFFFFFFFFFFFFFFFFFFFFFFFFFFFFFF13
:104DB000FFFFFFFFFFFFFFFFFFFFFFFFFFFFFFFF03
:104DC000FFFFFFFFFFFFFFFFFFFFFFFFFFFFFFFFF3
:104DD000FFFFFFFFFFFFD7565C24C675C655BE55C3
:104DE000BE55BE55BE73954DBE74C656C655C65506
:104DF000BE76BE55C6556C6754237CCABE75BE557B
:104E0000C655BE74BE55BE56C636BE55B67354237F
:104E1000D716FFFFFFFFFFFFFFFFFFFFFFFFFFFFB3
:104E2000FFFFFFFFFFFFFFFFFFFFFFFFFFFFFFFF92
:104E3000FFFFFFFFFFFFFFFFFFFFFFFFFFFFFFFF82
:104E4000FFFFFFFFFFFFFFFFFFFFFFFFFFFFFFFF72
:104E5000FFFFFFFFFFFFFFFFFFFFFFFFFFFFFFFF62
:104E6000FFFFFFFFFFFFFFFFFFFFFFFFFFFFFFFF52
:104E7000FFFFFFFFFFFFFFFFFFFFFFFFFFFFFFFF42
:104E8000FFFFFFFFFFFFFFFFFFFFFFFFFFFFFFFF32
:104E9000FFFFFFFFFFFFFFFFFFFFFFFFFFFFF7FC2D
:104EA0005C03AE32C656BE36BE55BE76BE55C6563D
:104EB000C635C654BE55C655BE55BE55BE945423C0
:104EC0008DCD7CAAC655C657BE35BE56BE55C655F5
:104ED000C635C6556C656425FFFEFFFFFFFFFFFF6B
:104EE000FFFFFFFFFFFFFFFFFFFFFFFFFFFFFFFFD2
:104EF000FFFFFFFFFFFFFFFFFFFFFFFFFFFFFFFFC2
:104F0000FFFFFFFFFFFFFFFFFFFFFFFFFFFFFFFFB1
:104F1000FFFFFFFFFFFFFFFFFFFFFFFFFFFFFFFFA1
:104F2000FFFFFFFFFFFFFFFFFFFFFFFFFFFFFFFF91
:104F3000FFFFFFFFFFFFFFFFFFFFFFFFFFFFFFFF81
:104F4000FFFFFFFFFFFFFFFFFFFFFFFFFFFFFFFF71
:104F5000FFFFFFFFFFFFFFFFFFFFFFFFFFFFFFFF61
:104F6000FFFFFFFFFFFFFFFE5C03958CBE76C6359B
:104F7000C635CE34D5B1E52DECEEED0DCDD2BE75F6
:104F8000BE55BE55BE5584CBBE74C655C656AE5230
:104F90007D09854BB653BE55BE558D8C5403FFFD20
:104FA000FFFFFFFFFFFFFFFFFFFFFFFFFFFFFFFF11
:104FB000FFFFFFFFFFFFFFFFFFFFFFFFFFFFFFFF01
:104FC000FFFFFFFFFFFFFFFFFFFFFFFFFFFFFFFFF1
:104FD000FFFFFFFFFFFFFFFFFFFFFFFFFFFFFFFFE1
:104FE000FFFFFFFFFFFFFFFFFFFFFFFFFFFFFFFFD1
:104FF000FFFFFFFFFFFFFFFFFFFFFFFFFFFFFFFFC1
:10500000FFFFFFFFFFFFFFFFFFFFFFFFFFFFFFFFB0
:10501000FFFFFFFFFFFFFFFFFFFFFFFFFFFFFFFFA0
:10502000FFFFFFFFFFFFFFFFFFFFFFFFFFFFFFFF90
:1050300095EE5424BE74C655D5F3ED0EF4ECF50C84
:10504000ECEDE56ECE15C636BE56BE56BE54BE5508
:10505000BE55C656AE315C23646454235C249DCE99
:10506000958D5C23BEB2FFFFFFFFFFFFFFFFFFFF39
:10507000FFFFFFFFFFFFFFFFFFFFFFFFFFFFFFFF40
:10508000FFFFFFFFFFFFFFFFFFFFFFFFFFFFFFFF30
:10509000FFFFFFFFFFFFFFFFFFFFFFFFFFFFFFFF20
:1050A000FFFFFFFFFFFFFFFFFFFFFFFFFFFFFFFF10
:1050B000FFFFFFFFFFFFFFFFFFFFFFFFFFFFFFFF00
:1050C000FFFFFFFFFFFFFFFFFFFFFFFFFFFFFFFFF0
:1050D000FFFFFFFFFFFFFFFFFFFFFFFFFFFFFFFFE0
:1050E000FFFFFFFFFFFFFFFFFFFFFFFFFFFFFFFFD0
:1050F000FFFFFFFFFFFFFFFFEF9B5423A60FBE56EE
:10510000DD91E50EE50EE56FD5F3C655BE56BE55ED
:10511000C655BE5374A953E4956DBE75852B53E3F4
:10512000C696BE557CE95C435C6264A55C03C6938D
:10513000FFFFFFFFFFFFFFFFFFFFFFFFFFFFFFFF7F
:10514000FFFFFFFFFFFFFFFFFFFFFFFFFFFFFFFF6F
:10515000FFFFFFFFFFFFFFFFFFFFFFFFFFFFFFFF5F
:10516000FFFFFFFFFFFFFFFFFFFFFFFFFFFFFFFF4F
:10517000FFFFFFFFFFFFFFFFFFFFFFFFFFFFFFFF3F
:10518000FFFFFFFFFFFFFFFFFFFFFFFFFFFFFFFF2F
:10519000FFFFFFFFFFFFFFFFFFFFFFFFFFFFFFFF1F
:1051A000FFFFFFFFFFFFFFFFFFFFFFFFFFFFFFFF0F
:1051B000FFFFFFFFFFFFFFFFFFFFFFFFFFFFFFFFFF
:1051C000FFFF852B5C24BE74C655C635C635BE565A
:1051D000BE55C635C656BE55C67564465C259DCDC2
:1051E00054227D0A74A86C87C675C655BE757CC9E5
:1051F00054425C2464445C25FFFFFFFFFFFFFFFF78
:10520000FFFFFFFFFFFFFFFFFFFFFFFFFFFFFFFFAE
:10521000FFFFFFFFFFFFFFFFFFFFFFFFFFFFFFFF9E
:10522000FFFFFFFFFFFFFFFFFFFFFFFFFFFFFFFF8E
:10523000FFFFFFFFFFFFFFFFFFFFFFFFFFFFFFFF7E
:10524000FFFFFFFFFFFFFFFFFFFFFFFFFFFFFFFF6E
:10525000FFFFFFFFFFFFFFFFFFFFFFFFFFFFFFFF5E
:10526000FFFFFFFFFFFFFFFFFFFFFFFFFFFFFFFF4E
:10527000FFFFFFFFFFFFFFFFFFFFFFFFFFFFFFFF3E
:10528000FFFFFFFFFFFFFFFFFFFFF7FC53C26CA80C
:10529000BE55C656BE75BE56BE56BE55BE55C65642
:1052A000AE115403E799C65695CE54436CE65C267E
:1052B000BE54C635BE55BE755C049DAE6CC75C045D
:1052C000FFFFFFFFFFFFFFFFFFFFFFFFFFFFFFFFEE
:1052D000FFFFFFFFFFFFFFFFFFFFFFFFFFFFFFFFDE
:1052E000FFFFFFFFFFFFFFFFFFFFFFFFFFFFFFFFCE
:1052F000FFFFFFFFFFFFFFFFFFFFFFFFFFFFFFFFBE
:10530000FFFFFFFFFFFFFFFFFFFFFFFFFFFFFFFFAD
:10531000FFFFFFFFFFFFFFFFFFFFFFFFFFFFFFFF9D
:10532000FFFFFFFFFFFFFFFFFFFFFFFFFFFFFFFF8D
:10533000FFFFFFFFFFFFFFFFFFFFFFFFFFFFFFFF7D
:10534000FFFFFFFFFFFFFFFFFFFFFFFFFFFFFFFF6D
:10535000FFFFFFFFE7BA54037CE9BE74BE55C635B4
:10536000C656BE56BE56C6557CA974A7BE75BE5558
:10537000BE7554245C6253E3BE74BE55BE55BE5523
:10538000BE74BE555C455C43AE31FFFEFFFFFFFFC0
:10539000FFFFFFFFFFFFFFFFFFFFFFFFFFFFFFFF1D
:1053A000FFFFFFFFFFFFFFFFFFFFFFFFFFFFFFFF0D
:1053B000FFFFFFFFFFFFFFFFFFFFFFFFFFFFFFFFFD
:1053C000FFFFFFFFFFFFFFFFFFFFFFFFFFFFFFFFED
:1053D000FFFFFFFFFFFFFFFFFFFFFFFFFFFFFFFFDD
:1053E000FFFFFFFFFFFFFFFFFFFFFFFFFFFFFFFFCD
:1053F000FFFFFFFFFFFFFFFFFFFFFFFFFFFFFFFFBD
:10540000FFFFFFFFFFFFFFFFFFFFFFFFFFFFFFFFAC
:10541000FFFFFFFFFFFFFFFFFFFFFFFFFFFFD7576C
:1054200054235C44B652BE54C655BE55BE55BE55F7
:105430006C4774C8BE55BE56C6558D4C5C435BE385
:10544000C695BE55BE56BE56BE55C655BE548D8C6D
:1054500054235C25D6F6FFFEFFFEFFFEFFFFFFFF95
:10546000FFFFFFFFFFFFFFFFFFFFFFFFFFFFFFFF4C
:10547000FFFFFFFFFFFFFFFFFFFFFFFFFFFFFFFF3C
:10548000FFFFFFFFFFFFFFFFFFFFFFFFFFFFFFFF2C
:10549000FFFFFFFFFFFFFFFFFFFFFFFFFFFFFFFF1C
:1054A000FFFFFFFFFFFFFFFFFFFFFFFFFFFFFFFF0C
:1054B000FFFFFFFFFFFFFFFFFFFFFFFFFFFFFFFFFC
:1054C000FFFFFFFFFFFFFFFFFFFFFFFFFFFFFFFFEC
:1054D000FFFFFFFFFFFFFFFFFFFFFFFFFFFFFFFFDC
:1054E000FFFFFFFFFFFFFFFFF7FD6C6754235C0525
:1054F000A5D0BE35C635BE75642774C9BE75C65500
:10550000C636BE75A5F0BE94BE55BE75C676BE55F0
:10551000BE55C655C675C636C6946C875C23858C49
:1055200064284BC4B672FFFEFFDFFFFFFFFFFFFFE3
:10553000FFFFFFFFFFFFFFFFFFFFFFFFFFFFFFFF7B
:10554000FFFFFFFFFFFFFFFFFFFFFFFFFFFFFFFF6B
:10555000FFFFFFFFFFFFFFFFFFFFFFFFFFFFFFFF5B
:10556000FFFFFFFFFFFFFFFFFFFFFFFFFFFFFFFF4B
:10557000FFFFFFFFFFFFFFFFFFFFFFFFFFFFFFFF3B
:10558000FFFFFFFFFFFFFFFFFFFFFFFFFFFFFFFF2B
:10559000FFFFFFFFFFFFFFFFFFFFFFFFFFFFFFFF1B
:1055A000FFFFFFFFFFFFFFFFFFFFFFFFFFFFFFFF0B
:1055B000FFFFFFFFDF5774E95C25BE54C655BE559B
:1055C000B612B612BE55BE56BE35C655BE55BE56EF
:1055D000C636BE55C655C655BE55BE56BE55BE5539
:1055E000BE55BE55A5CF54435C44852A5C24CEF6F7
:1055F000FFFFFFFFFFFFFFFFFFFFFFFFFFFFFFFFBB
:10560000FFFFFFFFFFFFFFFFFFFFFFFFFFFFFFFFAA
:10561000FFFFFFFFFFFFFFFFFFFFFFFFFFFFFFFF9A
:10562000FFFFFFFFFFFFFFFFFFFFFFFFFFFFFFFF8A
:10563000FFFFFFFFFFFFFFFFFFFFFFFFFFFFFFFF7A
:10564000FFFFFFFFFFFFFFFFFFFFFFFFFFFFFFFF6A
:10565000FFFFFFFFFFFFFFFFFFFFFFFFFFFFFFFF5A
:10566000FFFFFFFFFFFFFFFFFFFFFFFFFFFFFFFF4A
:10567000FFFFFFFFFFFFFFFFFFFFFFFFFFFF74CAFA
:1056800074A7BE55BE55C655BE56C656BE55BE5667
:10569000BE55BE55BE55C655C636C656C656BE556F
:1056A000BE55C656BE55C655BE55C656AE315442F9
:1056B0006CA6BE936C666466FFFEFFFFFFFFFFFFF4
:1056C000FFFFFFFFFFFFFFFFFFFFFFFFFFFFFFFFEA
:1056D000FFFFFFFFFFFFFFFFFFFFFFFFFFFFFFFFDA
:1056E000FFFFFFFFFFFFFFFFFFFFFFFFFFFFFFFFCA
:1056F000FFFFFFFFFFFFFFFFFFFFFFFFFFFFFFFFBA
:10570000FFFFFFFFFFFFFFFFFFFFFFFFFFFFFFFFA9
:10571000FFFFFFFFFFFFFFFFFFFFFFFFFFFFFFFF99
:10572000FFFFFFFFFFFFFFFFFFFFFFFFFFFFFFFF89
:10573000FFFFFFFFFFFFFFFFFFFFFFFFFFFFFFFF79
:10574000FFFFFFFFFFFE53A48D4CBE55BE55C6564E
:10575000BE55BE55BE55BE56C655BE55BE35BE54C9
:10576000BE33B653BE75BE55C655BE55BE55C6559D
:10577000BE55C655958D54436CA65C23A64E540366
:10578000E77AFFFFFFFFFFFFFFFFFFFFFFFFFFFFC6
:10579000FFFFFFFFFFFFFFFFFFFFFFFFFFFFFFFF19
:1057A000FFFFFFFFFFFFFFFFFFFFFFFFFFFFFFFF09
:1057B000FFFFFFFFFFFFFFFFFFFFFFFFFFFFFFFFF9
:1057C000FFFFFFFFFFFFFFFFFFFFFFFFFFFFFFFFE9
:1057D000FFFFFFFFFFFFFFFFFFFFFFFFFFFFFFFFD9
:1057E000FFFFFFFFFFFFFFFFFFFFFFFFFFFFFFFFC9
:1057F000FFFFFFFFFFFFFFFFFFFFFFFFFFFFFFFFB9
:10580000FFFFFFFFFFFFFFFFFFFFFFFFFFFD540351
:10581000A5F0BE56BE55C656BE55BE55BE55BE5663
:10582000C656BE55BE5474C9544454236C87BE74C6
:10583000C655BE55BE55C656BE55BE557CE85C44E1
:10584000D796958D54245C63AE71FFFFFFFFFFFF79
:10585000FFFFFFFFFFFFFFFFFFFFFFFFFFFFFFFF58
:10586000FFFFFFFFFFFFFFFFFFFFFFFFFFFFFFFF48
:10587000FFFFFFFFFFFFFFFFFFFFFFFFFFFFFFFF38
:10588000FFFFFFFFFFFFFFFFFFFFFFFFFFFFFFFF28
:10589000FFFFFFFFFFFFFFFFFFFFFFFFFFFFFFFF18
:1058A000FFFFFFFFFFFFFFFFFFFFFFFFFFFFFFFF08
:1058B000FFFFFFFFFFFFFFFFFFFFFFFFFFFFFFFFF8
:1058C000FFFFFFFFFFFFFFFFFFFFFFFFFFFFFFFFE8
:1058D000FFFFFFFFFFFD5C43B653C656BE55BE56E5
:1058E000C656BE56BE55C635BE55BE55956E5C42B3
:1058F000CF74E7B754047CC9BE55BE55BE55C655D6
:10590000BE55BE566CA65463A5EFFFFD5C245C42F9
:105910005C44FFFFFFFFFFFFFFFFFFFFFFFFFFFFF5
:10592000FFFFFFFFFFFFFFFFFFFFFFFFFFFFFFFF87
:10593000FFFFFFFFFFFFFFFFFFFFFFFFFFFFFFFF77
:10594000FFFFFFFFFFFFFFFFFFFFFFFFFFFFFFFF67
:10595000FFFFFFFFFFFFFFFFFFFFFFFFFFFFFFFF57
:10596000FFFFFFFFFFFFFFFFFFFFFFFFFFFFFFFF47
:10597000FFFFFFFFFFFFFFFFFFFFFFFFFFFFFFFF37
:10598000FFFFFFFFFFFFFFFFFFFFFFFFFFFFFFFF27
:10599000FFFFFFFFFFFFFFFFFFFFFFFFD7385C4365
:1059A000BE93C655BE55BE55C656BE56BE55C65507
:1059B000C656BE746445544353E374C8D797542302
:1059C000B672BE56BE55C655BE55BE5674C7546255
:1059D0008D6CFFFF7CE95C435402FFFEFFFFFFFF7D
:1059E000FFFFFFFFFFFFFFFFFFFFFFFFFFFFFFFFC7
:1059F000FFFFFFFFFFFFFFFFFFFFFFFFFFFFFFFFB7
:105A0000FFFFFFFFFFFFFFFFFFFFFFFFFFFFFFFFA6
:105A1000FFFFFFFFFFFFFFFFFFFFFFFFFFFFFFFF96
:105A2000FFFFFFFFFFFFFFFFFFFFFFFFFFFFFFFF86
:105A3000FFFFFFFFFFFFFFFFFFFFFFFFFFFFFFFF76
:105A4000FFFFFFFFFFFFFFFFFFFFFFFFFFFFFFFF66
:105A5000FFFFFFFFFFFFFFFFFFFFFFFFFFFFFFFF56
:105A6000FFFFFFFFB6535423BE94C635BE55BE7527
:105A7000C6959DCE956DC695BE55BE9354235C6369
:105A8000C52A64027D296CA66C66C675BE55C655CE
:105A9000BE55BE56852A5C628D6CFFFFE7B85C433D
:105AA0005423F7FDFFDFFFFFFFFFFFFFFFFFFFFFB7
:105AB000FFFFFFFFFFFFFFFFFFFFFFFFFFFFFFFFF6
:105AC000FFFFFFFFFFFFFFFFFFFFFFFFFFFFFFFFE6
:105AD000FFFFFFFFFFFFFFFFFFFFFFFFFFFFFFFFD6
:105AE000FFFFFFFFFFFFFFFFFFFFFFFFFFFFFFFFC6
:105AF000FFFFFFFFFFFFFFFFFFFFFFFFFFFFFFFFB6
:105B0000FFFFFFFFFFFFFFFFFFFFFFFFFFFFFFFFA5
:105B1000FFFFFFFFFFFFFFFFFFFFFFFFFFFFFFFF95
:105B2000FFFFFFFFFFFFFFFFFFFFFFFFA5F05C246C
:105B3000BE75C655BE55BE557CCA5C435C236445E4
:105B4000BE75A5EF54625C22ED2DB4C85424BED2BC
:105B50005443C694BE55C655C655C6559DEF5C43C5
:105B6000AE51FFFFFFFD54235C6253E5F7FDFFFFDD
:105B7000FFFFFFFFFFFFFFFFFFFFFFFFFFFFFFFF35
:105B8000FFFFFFFFFFFFFFFFFFFFFFFFFFFFFFFF25
:105B9000FFFFFFFFFFFFFFFFFFFFFFFFFFFFFFFF15
:105BA000FFFFFFFFFFFFFFFFFFFFFFFFFFFFFFFF05
:105BB000FFFFFFFFFFFFFFFFFFFFFFFFFFFFFFFFF5
:105BC000FFFFFFFFFFFFFFFFFFFFFFFFFFFFFFFFE5
:105BD000FFFFFFFFFFFFFFFFFFFFFFFFFFFFFFFFD5
:105BE000FFFFFFFFFFFFFFFFFFFFFFFFFFFFFFFFC5
:105BF000F7FEFFFE9DCF5C04C675BE55C656BE734C
:105C00005C43C6D5EFFB5C03A60F7CC9546263E11D
:105C1000ED2DF52C6403BEB25423956EC655C655C2
:105C2000BE55BE55B6335C23DF98FFFFFFFE4C2305
:105C300054425C44DF99FFFFFFFFFFFFFFFFFFFFC0
:105C4000FFFFFFFFFFFFFFFFFFFFFFFFFFFFFFFF64
:105C5000FFFFFFFFFFFFFFFFFFFFFFFFFFFFFFFF54
:105C6000FFFFFFFFFFFFFFFFFFFFFFFFFFFFFFFF44
:105C7000FFFFFFFFFFFFFFFFFFFFFFFFFFFFFFFF34
:105C8000FFFFFFFFFFFFFFFFFFFFFFFFFFFFFFFF24
:105C9000FFFFFFFFFFFFFFFFFFFFFFFFFFFFFFFF14
:105CA000FFFFFFFFFFFFFFFFFFFFFFFFFFFFFFFF04
:105CB000FFFFFFFFF7FDB65364475C2674C75C2403
:105CC000BE95BE55C6557CE95C24C654B5F56C86B8
:105CD00074C764265C427362ED0DF4EC73C395AD3A
:105CE0006CA76C87BE55BE55BE56BE55B653540301
:105CF000F7FBFFFFFFFF54046CE65443CEF6FFFFB3
:105D0000FFFFFFFFFFFFFFFFFFFFFFFFFFFFFFFFA3
:105D1000FFFFFFFFFFFFFFFFFFFFFFFFFFFFFFFF93
:105D2000FFFFFFFFFFFFFFFFFFFFFFFFFFFFFFFF83
:105D3000FFFFFFFFFFFFFFFFFFFFFFFFFFFFFFFF73
:105D4000FFFFFFFFFFFFFFFFFFFFFFFFFFFFFFFF63
:105D5000FFFFFFFFFFFFFFFFFFFFFFFFFFFFFFFF53
:105D6000FFFFFFFFFFFFFFFFFFFFFFFFFFFFFFFF43
:105D7000FFFFFFFFFFFFFFFFFFFFBE9354035C2504
:105D80008D6C958D74A85C43BE73C656BE756485D4
:105D90006C88C655C6168D8B5C4353E4A569DD2C13
:105DA000F4ECF50CA4876467BEF15C23C675BE55A0
:105DB000BE55C655AE115403FFFEFFFFFFFF6C87B3
:105DC0005C845C24F7FDFFFFFFFFFFFFFFFFFFFF89
:105DD000FFFFFFFFFFFFFFFFFFFFFFFFFFFFFFFFD3
:105DE000FFFFFFFFFFFFFFFFFFFFFFFFFFFFFFFFC3
:105DF000FFFFFFFFFFFFFFFFFFFFFFFFFFFFFFFFB3
:105E0000FFFFFFFFFFFFFFFFFFFFFFFFFFFFFFFFA2
:105E1000FFFFFFFFFFFFFFFFFFFFFFFFFFFFFFFF92
:105E2000FFFFFFFFFFFFFFFFFFFFFFFFFFFFFFFF82
:105E3000FFFFFFFFFFFFFFFFFFFFFFFFFFFFFFFF72
:105E4000CEF65C23A5EFFFFEFFFFFFFFF7FD542317
:105E5000AE11C655C67554249DEEBE56C636A5EE87
:105E600054225C23B5EEECEDFCECF4ECCD0B53E4EA
:105E7000EFF95423B633C676C655C6368D8C53E338
:105E8000FFFFFFFFFFFF7CE95C42A5F0FFFFFFFF84
:105E9000FFFFFFFFFFFFFFFFFFFFFFFFFFFFFFFF12
:105EA000FFFFFFFFFFFFFFFFFFFFFFFFFFFFFFFF02
:105EB000FFFFFFFFFFFFFFFFFFFFFFFFFFFFFFFFF2
:105EC000FFFFFFFFFFFFFFFFFFFFFFFFFFFFFFFFE2
:105ED000FFFFFFFFFFFFFFFFFFFFFFFFFFFFFFFFD2
:105EE000FFFFFFFFFFFFFFFFFFFFFFFFFFFFFFFFC2
:105EF000FFFFFFFFFFFFFFFFFFFFFFFFFFFFFFFFB2
:105F0000FFFFFFFFFFFFFFFE53E38D8EFFFFFFFF4D
:105F1000FFFFFFFFFFFE53C4850ABE55BE33542367
:105F2000BEB3BE55C635AE1054425443B630E50E2E
:105F3000F4CCF4EDE52B5C03EFBB5403A5EEBE55AA
:105F4000BE55BE366C878D6AFFFFFFFFFFFF5C46C4
:105F50008D6BFFFEFFFFFFFFFFFFFFFFFFFFFFFF58
:105F6000FFFFFFFFFFFFFFFFFFFFFFFFFFFFFFFF41
:105F7000FFFFFFFFFFFFFFFFFFFFFFFFFFFFFFFF31
:105F8000FFFFFFFFFFFFFFFFFFFFFFFFFFFFFFFF21
:105F9000FFFFFFFFFFFFFFFFFFFFFFFFFFFFFFFF11
:105FA000FFFFFFFFFFFFFFFFFFFFFFFFFFFFFFFF01
:105FB000FFFFFFFFFFFFFFFFFFFFFFFFFFFFFFFFF1
:105FC000FFFFFFFFFFFFFFFFFFFFFFFFFFFFD757B1
:105FD0005C03F7DDFFFFFFFFFFFFFFFFFFFFAE5298
:105FE0005C45BE74BE335422C6D4C655C655B612DF
:105FF00054425442AE10ED91F4EDF4ECE54C6402E1
:10600000EFBB5C05854AC656BE55BE945C24C6B43B
:10601000FFFFFFFFFFFD5423CEF6FFFFFFFFFFFF53
:10602000FFFFFFFFFFFFFFFFFFFFFFFFFFFFFFFF80
:10603000FFFFFFFFFFFFFFFFFFFFFFFFFFFFFFFF70
:10604000FFFFFFFFFFFFFFFFFFFFFFFFFFFFFFFF60
:10605000FFFFFFFFFFFFFFFFFFFFFFFFFFFFFFFF50
:10606000FFFFFFFFFFFFFFFFFFFFFFFFFFFFFFFF40
:10607000FFFFFFFFFFFFFFFFFFFFFFFFFFFFFFFF30
:10608000FFFFFFFFFFFFFFFFFFFFFFFFFFFFFFFF20
:10609000FFFFFFFFFFFF8D6C6C86FFFFFFFFFFFF21
:1060A000FFFFFFFFFFFFE7995403B693BE5454234D
:1060B000BE93C655BE55BE5454435C839D8EFF5956
:1060C000ECEDFCCCED2C63E2DF988D8C6486BE7425
:1060D000A6106C875423E79AFFFFFFFFA6105424F5
:1060E000FFFDFFFFFFFFFFFFFFFFFFFFFFFFFFFFC2
:1060F000FFFFFFFFFFFFFFFFFFFFFFFFFFFFFFFFB0
:10610000FFFFFFFFFFFFFFFFFFFFFFFFFFFFFFFF9F
:10611000FFFFFFFFFFFFFFFFFFFFFFFFFFFFFFFF8F
:10612000FFFFFFFFFFFFFFFFFFFFFFFFFFFFFFFF7F
:10613000FFFFFFFFFFFFFFFFFFFFFFFFFFFFFFFF6F
:10614000FFFFFFFFFFFFFFFFFFFFFFFFFFFFFFFF5F
:10615000FFFFFFFFFFFFFFFFFFFFFFFFFFFF958D2B
:106160006466F7FEFFDFFFFFFFFFFFFFEFDB6C67FB
:106170005443BE74C6765C238D6CC655BE56BE5461
:1061800054227D695C45FFFBECCDF4CCED2D74030E
:10619000BEB3BE925C62542354245C645C44FFFE34
:1061A000FFFFFFFE5C44956EFFFFFFFFFFFFFFFF59
:1061B000FFFFFFFFFFFFFFFFFFFFFFFFFFFFFFFFEF
:1061C000FFFFFFFFFFFFFFFFFFFFFFFFFFFFFFFFDF
:1061D000FFFFFFFFFFFFFFFFFFFFFFFFFFFFFFFFCF
:1061E000FFFFFFFFFFFFFFFFFFFFFFFFFFFFFFFFBF
:1061F000FFFFFFFFFFFFFFFFFFFFFFFFFFFFFFFFAF
:10620000FFFFFFFFFFFFFFFFFFFFFFFFFFFFFFFF9E
:10621000FFFFFFFFFFFFFFFFFFFFFFFFFFFFFFFF8E
:10622000FFFFFFFFFFFFD7765404F7FEFFFFFFFFDE
:10623000FFFFEFBC5C0454035C449DCEBE546C87EE
:106240005C46C655C655BE735423BEB2542464671B
:10625000F673F4CCED0C7C239DD0D6F554635C2210
:10626000750764647CEBFFFFFFFFBE735402FFFD04
:10627000FFFFFFFFFFFFFFFFFFFFFFFFFFFFFFFF2E
:10628000FFFFFFFFFFFFFFFFFFFFFFFFFFFFFFFF1E
:10629000FFFFFFFFFFFFFFFFFFFFFFFFFFFFFFFF0E
